:020000040040BA
:10000000301A40207D0240005D034000A908000036
:10001000E5080000C7024000C7024000C7024000D8
:10002000000000000000000000000000C7024000C7
:10003000C7024000000000000D0800009D0E4000B7
:10004000C90D4000A14F0000C7024000C702400098
:10005000C7024000C7024000C7024000C70240007C
:10006000C7024000C7024000C702400061730000A1
:10007000C7024000C7024000C7024000015900000B
:10008000C7024000C7024000690A4000C7024000A2
:10009000C7024000C7024000C7024000610B400099
:1000A000C7024000C7024000C7024000C70240002C
:1000B000C7024000C7024000C7024000C70240001C
:1000C0000000000000000000000000000000000030
:1000D0000000000000000000000000000000000020
:1000E0000000000000000000000000000000000010
:1000F0000000000000000000000000000000000000
:100100000348044B834202D0034B03B118477047A6
:100110002C1640202C16402000000000064B0749FA
:10012000C91A891048BF0131491003D0044B0BB1E3
:1001300001481847704700BF2C1640202C1640205D
:100140000000000010B5064C237843B9FFF7D8FF34
:10015000044B13B10448AFF300800123237010BD9A
:10016000301A402000000000D415400008B5054BAF
:100170001BB105490548AFF30080BDE80840FFF713
:10018000CDBF00BF00000000341A4020D41540004D
:100190007047704737B540F6B832084B084C9D6C35
:1001A0002368EB1A934206D900F02CF901A900F05C
:1001B00039F900B9256003B030BD00BF000004402C
:1001C0004C1A402007B50B4B93F8DB3073B10A4B48
:1001D0000A489A6C0A4B1A6055F492FD142000F0FC
:1001E00017F900F00FF901A900F01CF9002003B085
:1001F0005DF804FB00FD4020000004409501400034
:100200004C1A40200020704708B501F4D1FE4FF091
:1002100080421369012123F0030343F001031361BA
:100220001369022043F010031361032202F48CF8D7
:10023000BDE80840FFF7ACBF7047000008B50B4AA7
:100240000B4B9A60D3F8882042F03F02C3F8882015
:10025000FFF7F2FF50F4BAF905F476FE00F0EFFC78
:1002600051F436F8034B044A1A6008BD0000400000
:1002700000ED00E0F015402040787D01DFF848D027
:10028000124880F30A88FFF7D9FF114C114DAC4298
:1002900009DA21686268A368043BA2BFC858D0503D
:1002A000FAE70C34F3E70C4B0C4CA34208DA19685C
:1002B0005A680020043AA4BF8850FBE70833F4E7EB
:1002C00000F0CCFEFEE7FEE7301A4020301640205A
:1002D000E8154000E8154000E8154000F015400022
:1002E00000207047704708B5FFF78EFFFFF7FAFF51
:1002F00000F069FA032001F4FBFE002000F0CBFDC2
:10030000003818BF012008BD024A1368013313608A
:10031000704700BF501A4020034670B5B8B142F292
:1003200010754FF0E026AB4284BFA3F51C5442F297
:100330001073326998BF0024184688BF103CD30759
:1003400008D401F4C3FC2346002CECD101E001F4F5
:10035000BDFC70BD01F49CFCF5E7000008B5054B41
:100360001B695B0002D500F03FFC08BD00F036FDC4
:10037000FBE700BF00F00040114BF0B598421BD1E5
:10038000032A1BD100241C2707FB04F68D198E5964
:1003900000EBC4135E606E6801341E61EE68A24219
:1003A0009E622E699E636E695E64AE691E65AD686D
:1003B000DD61E9D80020F0BD022AE2E70120FAE77A
:1003C00000000A5007B50021022000F0ADF800211E
:1003D000019001A800F0C4F8003818BF0120404285
:1003E00003B05DF804FB07B50021022000F09CF883
:1003F0000021019001A800F0C5F803B05DF804FBEE
:1004000000F03ABD014B1878704700BFF41540204A
:1004100018B1034B1870002070474FF0FF30704741
:10042000F415402073B506460D4601F48EFC0028F5
:100430006DD1FFF7C7FF00286CD1384C0120D4F8EC
:1004400014316FF3DC4343F40023C4F81431D4F8BF
:10045000143143F00053C4F81431D4F8143123F4A8
:100460008033C4F81431D4F81431C4F81431D4F8FA
:1004700014316FF30F03C4F81431D4F814311E4350
:10048000C4F81461D4F8143143F40033C4F81431BF
:10049000FFF7B6FFD4F81831002BFBDA2048D4F868
:1004A000182101681F4E22F0004271B33368934255
:1004B0001DD2D41AFA2C23D9994221D9C91AFA2962
:1004C0001ED903EB43040D23083403FB0244240923
:1004D0000260042202200DEB02013460019401F459
:1004E000E1FC2C60FFF77FFF002002B070BD07D950
:1004F0009C1AC82C04D9994202D2591AC829DFE79C
:10050000C3EB031414440834E1E71446E0E74FF06A
:10051000FF30EAE76FF00200E7E700BF00000940A4
:10052000581A4020541A4020012808B508D1032940
:100530000ED8084800E00848182303FB010008E033
:10054000012905D80228F6D0B021044800F0D2FCD9
:10055000002008BD00200850002000408812400004
:1005600008B538B1006848B14069002808DB00F0E0
:100570000F0008BD0220FFF7D7FFF4E70420F8E7DB
:100580000020F6E708B530B1006818B1436943F0C0
:100590000043436108BD0220FFF7C6FFF5E770B5D1
:1005A0000546002603681C699C6004B970BDE3071A
:1005B00004D5AB6813B12846F1B2984764080136F8
:1005C000F3E7000010B5044618B915210C4800F0F7
:1005D00091FC237D072B03D91621094800F08AFCE2
:1005E0002368227D103303EB0213A26863605A6014
:1005F0006368E26800209A600123237610BD00BF83
:1006000009134000012210B5037D046802FA03F3C8
:10061000B1B161680B4343F4803363600468017DCA
:10062000A3688A40134343EA0243A360C27C837DEC
:1006300043EA02434268136002220276002010BDA2
:10064000A16843EA034321EA0303A360F5E701231A
:100650000268007D516883400B435360704700007F
:1006600010B55AB151B123285DD047D80B283BD8DB
:10067000E0B940F22231414800F03CFC002051E05A
:1006800059380728F5D801A454F820F04507400050
:100690005D074000650740006D074000730640009D
:1006A00073064000730640007507400001380023C0
:1006B0000A28DED801A454F820F000BF57074000F4
:1006C0007306400073064000510740007306400067
:1006D0004B0740007306400073064000730640005D
:1006E0003F0740003907400016284FF000031FD095
:1006F0002228BED10B604FF4007310E06028B8D8F8
:1007000058284FF00003BBD8382805D03A28B0D17C
:100710000B604FF4803302E00B604FF480734FF0B6
:100720008040136010BD00230B604FF48063F6E738
:100730000B604FF40043F2E70B604023EFE70B60E0
:100740002023ECE70B601023E9E70B600823E6E7C2
:100750000B600423E3E70B600223E0E70B604FF438
:100760008013DCE70B604FF40023D8E70B604FF4F5
:100770008023D4E70B608023D1E700BF46134000FD
:1007800007B56A4601A9FFF76BFFB0F1804F01D1B1
:10079000019B3BB140F62201094803B05DF804EB30
:1007A00000F0A8BBEFF31082012383F310884368A5
:1007B00000990B43436082F3108803B05DF804FB9B
:1007C00046134000704708B5FFF7FCFF08BD000066
:1007D000F8B5124E124B134C336020332360124A8B
:1007E000124B134F1A60134B134D3B6003F5E67326
:1007F0002B60124B02F56B7211481A6005F426F952
:10080000396830684FF4E67254F4F4F920684FF414
:10081000E672296854F4EEF90020F8BDE8E64020BD
:1008200000E04020ECE6402040E04020F0E64020A0
:10083000F4E6402050E04020F8E64020FCE640206E
:100840007D590000044A054B1A60013A12680AB14A
:100850001B681847704700BF016040005C1A4020C9
:1008600010B5012000F046F951F446FE01F46DFA8E
:1008700028B950F4F3FCFFF7C5FD50F4E3FC032066
:1008800050F4F0FC00240E230C4A0D491046C2E936
:100890000744137553F4BCFB0A4855F431FA0A486F
:1008A00053F494FCFFF7CEFF00F0C2F801F478FD9A
:1008B000204604F433FB204610BD00BF601A4020E0
:1008C000E813400055790100CD084000013008B51B
:1008D00001D0012008BD17F433FA0028F9D1032014
:1008E000F8E7000008B5094B0246186A10F020002E
:1008F00006D0074B9A4204D1012904D917F420FAF3
:1009000008BD0020FCE74FF0FF30F9E7000004408D
:10091000601A402004F4A4BB08B501F441FD04F4BE
:1009200077FBBDE80840002000F0E4B810B548B1FE
:10093000012809D040F6D6020449054850F40EFDBE
:10094000204610BD0224FBE70624F9E7001440000E
:1009500094134000062238B50D4C02230125A270E5
:10096000032204202370E2702371657050F434FC7C
:1009700043881420023BE37150F42EFC43886571D8
:10098000023B2372A5712046BDE8384050F454BCA8
:10099000D4EA402000B5164A91B0537990795B00B3
:1009A00003F0020300F00100184350F441FC282238
:1009B000002106A800F060FC4FF400720D4B0621E8
:1009C000CDE903320023CDE901314FF42773012231
:1009D0004FF48051009306A84FF400534FF478FD74
:1009E00006A804F409FB09F40DFA11B05DF804FB44
:1009F000D4EA402000FE402010B50020FFF796FF0B
:100A0000084B53F820309847044628B940F649224D
:100A10000549064850F4A2FC2046BDE810400021DC
:100A200050F432BCCCFD0500F41340009613400096
:100A300008B5FFF78FFFFFF7ADFFFFF7DDFF08BD3C
:100A4000074BD3F89820C2F30B03120544BF83F47D
:100A50007F6383F00F0313B1024A1268136070477B
:100A600000400840F815402010B5074B1C6851F4B1
:100A7000F3FFA30704D50548FFF7E9FDFFF7E0FF03
:100A8000BDE8104052F400B800C00040A01A402059
:100A900070B516461C225043114D124A2C182A508C
:100AA00001222275104A05201268E074A26000221B
:100AB0001220A1751146E260A674238201F4F6FAB1
:100AC0002046FFF77FFD28B140F25F120749084832
:100AD00050F444FC2046BDE870400121FFF792BD70
:100AE000A01A402000C00040F81540200D1440001E
:100AF0009913400010B528B10022084B1B681A60FA
:100B00005A601A813820FFF73BFEBDE810400023F1
:100B100069211A461846FFF7BBBF00BFF8154020F1
:100B2000072910B50C4604D934220A490A4850F462
:100B300015FC0A4B5A6AE240D20703D51CB9986AE1
:100B400015F4FEFD10BD03EB8403986ABDE8104068
:100B500015F4DABD18144000A213400098E44020B8
:100B600008B551F479FF0348FFF719FDBDE80840C7
:100B700051F48ABFFC15402008B5064A064813699F
:100B800043F00053136150F407FC044851F440FD56
:100B9000002008BD00F00040C10B4000A10B400048
:100BA00010B5064C23695B0006D4012001F422FA3B
:100BB000236943F080532361012010BD00F0004001
:100BC00010B5084C23695B000AD4012001F412FA25
:100BD000236943F080532361BDE8104000F01EBB41
:100BE00010BD00BF00F0004008B551F435FF40F2E1
:100BF0003F120449044850F4B1FBBDE8084051F4E9
:100C000043BF00BF38144000941340007047704742
:100C1000012908B501D8002008BD15F42FFD08B939
:100C20000720F9E715F448FD0028F9D0024B5A6A6D
:100C30001B6A1A42EFD0F3E700000440704708B582
:100C400000F070FC08BD0000014B1878704700BF31
:100C500054FD402010B50F4C236A9A0606D459F46F
:100C6000CDFD236A9B060BD4002010BD0A4B002B40
:100C7000F5D0FFF74FFE0028F1D04FF0FF30F4E73A
:100C8000064C2368002BEFD0FFF746FE00232360BD
:100C9000EAE700BF00000440150940002C1B40207B
:100CA00010B50022FC210C4854F4ACFC01200B4987
:100CB00053F490FA0A49002053F4AAF915F4DAFB28
:100CC000084B094C9B6CA36055F48AFA0123E06041
:100CD0002370002010BD00BF081640206C14400097
:100CE00060144000000004400C1B402070470000CE
:100CF000F8B52C4B19600239032905D8DFE801F05B
:100D00004A410902FFF7F2FF274B5A6A274B1A6044
:100D10003FE0092052F4C0FF04464568071DBD426C
:100D20001DD1214EFFF796FFB26C214B21489A61ED
:100D300050F4B0FF054618B10422012150F430FFF1
:100D4000736C1D4823F00103736400F4E7FF6468CB
:100D5000BC420CD115F432FE15F464FED4E7A5F1C3
:100D60000C000422022150F41BFF2D68D7E7A4F1E8
:100D70000C00854203D00422012150F411FF2468A5
:100D8000E6E759F4D9FB084B00289A6C084B9A61A6
:100D9000BADBF8BD59F41CFC034B9A6C044B9A6106
:100DA000B2E700BFC0E840200000044058FD4020EA
:100DB0000C1B4020C913400000000840014BD860C4
:100DC000704700BF0C1B402008B551F445FE00F4ED
:100DD00009FBBDE8084051F457BE704738B5184BC1
:100DE0001A682ABB0124174D1C602B695A001FD4B6
:100DF000FFF7F3FF204601F4FDF82B69204643F08E
:100E000080532B61104B114D4BF681342B6000F059
:100E100033F834222B68DA602B685B699B0708D4AF
:100E2000012000F029F8074A136843F0010313601A
:100E300038BD013CF4D0012000F448FFECE700BFCE
:100E4000301B402000F0004000B00040341B402028
:100E500010B5C26A816A043A04460A44054BD0E9D7
:100E6000080151F4FBFBE061A16ABDE8104000F00D
:100E70002DB900BFD15A050007B50190019B13B9E8
:100E800003B05DF804FB4FF47A70FFF745FA019B5D
:100E9000013B0193F2E700207047000070B5144D4C
:100EA00051F4DAFD6B6AFFF72FFA55F499F9EB6A02
:100EB00004469B0605D455F49BF9BDE8704051F4F7
:100EC000E3BDAD6C461C01F4A5F80123024629469A
:100ED00030464FF401FD8442EFD08642EBD055F40A
:100EE00087F955F485F9A01CFFF768FFE5E700BF17
:100EF00000000440002307B540F22E2205490648B1
:100F0000019350F42BFA019B002BFCD003B05DF849
:100F100004FB00BF741440009413400070470000AD
:100F200008B5FFF7FBFFFFF7DEF9084854F43EFF72
:100F3000FFF72FF951F4B0FB51F4F8FB04490548D1
:100F400054F412FBBDE8084000F00EB8510E40000A
:100F5000005C4020401D402000207047002070476A
:100F6000002070470020704738B5044C044DAC4257
:100F700000D338BD54F8043B9847F8E7AC1540005F
:100F8000B015400038B5054C054DAC4200D338BD16
:100F900054F8043B002BF8D09847F6E7B015400012
:100FA000D015400013B502248DF8064054F44EFFCE
:100FB00090F835308DF8073054F448FF21460DF194
:100FC000060254F457FCFFF7DDFF54F43FFF2146BF
:100FD0000DF1070254F44EFCFFF714F902B010BDF6
:100FE000704700000223142213B50B49CDE90032EB
:100FF0000A484FF48063002254F484FC044628B964
:101000004FF4B3720649074850F4A8F9204602B0DD
:10101000BDE8104054F4B8BFA50F4000CD13400008
:1010200085144000D213400008B5FFF7D7F3FFF74F
:1010300005FEFFF775FFFFF707FE08B954F4F9F94D
:1010400054F40EFC54F4E2FBFFF7CCFF54F410FC14
:1010500000F01EF854F4F0FB002008BD08B5FFF7BF
:10106000BFFFFFF7E1FF002008BD000038B50024F6
:10107000064D55F8043B03B198470134042CF8D1D0
:1010800054F4C0FD54F4FEFAF1E700BFECEF402049
:101090001FB507232022CDE902324FF400730193DC
:1010A000064B074A009307490023074854F442FEC1
:1010B000054805B05DF804EB54F466BF401B4020C2
:1010C0006D104000E113400070EF402070470000B9
:1010D000EFF3108072B6704780F31088704740BFFE
:1010E0005F4A1368012B04D04FF0010313605D4A7F
:1010F00010605D4A11605D484FF08051016070479B
:10110000EFF3108272B656480168C9B14FF0000182
:1011100001605448016849B1EFF3098121E9F00FFA
:10112000EFF30B8441F8044D006801604E490968F3
:10113000096810C984F30B88B1E8F00F81F30988BE
:1011400082F310884EF0040E704749484FF47F0137
:10115000D0F8002041EA020101607047424908606E
:1011600040494FF0000008603D494FF00100086021
:101170003F484FF47F01D0F8002041EA02010160AE
:101180003A484FF0805101603A480068006800BF5B
:1011900080F3088861B662B6704700BF20BF704711
:1011A000EFF308801EF0040F01D0EFF3098020E96F
:1011B000F00FEFF30B8440F8044D40F804ED1EF0FF
:1011C000040F02D080F3098801E080F3088800B59D
:1011D00051F425FA5DF804EB4EF0040E7047EFF37E
:1011E00008801EF0040F01D0EFF3098020E9F00F12
:1011F000EFF30B8440F8044D40F804ED1EF0040FAB
:1012000002D080F3098801E080F3088800B551F42A
:1012100009FA5DF804EB4EF0040E704710B4EFF3DA
:10122000038410B47C4600B500B54DF804CD0FB46E
:10123000089C2DE9F00FEFF30B8410B4684651F4CD
:10124000ADF910BC84F30B88BDE8F00F0FBC5DF85E
:1012500004CB5DF804EB10BC10BC10BC7047000060
:10126000A4F8402074F8402078F8402004ED00E015
:1012700020ED00E008ED00E002440346934200D177
:10128000704703F8011BF9E7483A5C696E646976B8
:10129000696475616C5C436F64655C5369466C6935
:1012A0005C5369466C692D53444B5C647269766586
:1012B00072735C68616C5C6266305F68616C5F6D04
:1012C00061696C626F782E6300483A5C696E64698C
:1012D00076696475616C5C436F64655C5369466CE8
:1012E000695C5369466C692D53444B5C6472697642
:1012F0006572735C68616C5C6266305F68616C5FCC
:1013000070696E6D75782E6300483A5C696E646929
:1013100076696475616C5C436F64655C5369466CA7
:10132000695C5369466C692D53444B5C6472697601
:101330006572735C68616C5C6266305F68616C5F8B
:101340007074632E6300483A5C696E646976696400
:1013500075616C5C436F64655C5369466C695C5392
:1013600069466C692D53444B5C647269766572738F
:101370005C68616C5C6266305F68616C5F7263635D
:101380002E630063616C6C6261636B20213D204EB3
:10139000554C4C003000746C0052545F46414C5325
:1013A0004500715F696478203C204950435F48578D
:1013B0005F51554555455F4E554D0048414C5F4F77
:1013C0004B203D3D206572720070696E006D616951
:1013D0006E0074696420213D2052545F4E554C4C80
:1013E000007469646C650000E508400000000000BE
:1013F00000000000706F72745F636F6E6669670053
:10140000726F6D5F706F72745F6765740070746384
:101410005F636F6E6669670068637075326C6370D6
:10142000755F6E6F74696669636174696F6E5F631F
:10143000616C6C6261636B004442475F5472696720
:101440006765725F49525148616E646C65720070E5
:101450006D5F70696E5F726573746F726500000016
:10146000110C40000F0C4000000000000A000000BA
:101470000300000048414C5F41737365727446611C
:10148000696C65640072745F6170706C696361742B
:10149000696F6E5F696E69740000000010B50446E4
:1014A00020B940F6B5010A48FFF724FD2268094B30
:1014B00000201A6062685A60A2689A60E268DA6086
:1014C000226903F540439A636269DA6310BD00BF85
:1014D000C9124000003000407047704708B50C4802
:1014E000FFF7DCFF28B14FF4BC720A490A484FF4F9
:1014F00035FF022209490A48FEF73EFF38B1BDE830
:1015000008404FF4BE72034903484FF427BF08BD9B
:10151000BC1A40204F144000BB134000D41A402096
:101520000000084038B5164C236803F00303032B72
:10153000144B02D000221A7038BD01251D7055F4DD
:10154000E1FB114A136943F000531361636C23F00C
:1015500002036364FFF7C2FF636C23F0010363645B
:10156000FEF7C1FEFFF73AF1084B1D60FEF711FED2
:1015700051F492F8FFF76FF14FF480FBDCE700BF06
:101580000000044054FD402000F000402C1B40208F
:10159000F8B500BFF8BC08BC9E467047F8B500BF60
:1015A000F8BC08BC9E467047590F40005D0F4000D4
:1015B000610F4000A10C4000E1A60200C5014000FF
:1015C000EDAC0500D107400061084000790B4000F8
:0815D000650F4000000000005F
:1015D800A4ECFF7FB0B0B08000EDFF7F01000000F9
:0815E800301A4020100300003E
:1015F000006CDC02C8000000902708400020085062
:1016000000000000210B4000F10C4000D914400004
:10161000DDAB0500F5AB0500DB1440000D0C400010
:0C1620008DAB05006D014000450140004D
:040000050040105D4A
:00000001FF
