:020000041202E6
:1000000000200020A5B1021225B202120D6B0020C3
:100010004F6B0020EFB10212EFB10212EFB10212EA
:10002000000000000000000000000000EFB102121C
:10003000EFB1021200000000316A002041F3061205
:10004000EFB10212EFB10212C5490612D7490612EA
:10005000E9490612FB4906120D4A06121F4A06120A
:10006000314A0612434A0612EFB102127DA702126C
:10007000EFB10212EFB10212EFB10212EFB10212B0
:10008000EFB10212EFB10212EFB10212EFB10212A0
:1000900015560612EFB10212EFB10212EFB10212C1
:1000A000EFB10212EFB10212EFB10212EFB1021280
:1000B000EFB10212EFB10212EFB10212EFB1021270
:1000C000EFB10212EFB10212EFB10212EFB1021260
:1000D000EFB10212EFB10212EFB10212EFB1021250
:1000E000EFB10212EFB10212EFB10212EFB1021240
:1000F000EFB10212EFB10212E5610612EFB1021286
:10010000EFB10212D176061235490612474906129E
:10011000594906126B4906127D4906128F4906128B
:10012000A1490612B3490612592A0612E55C0612C5
:10013000EFB10212A56D06123DE30612319E0612C2
:10014000EFB10212EFB10212EFB10212ADF20612DC
:10015000EFB10212EFB10212EFB10212EFB10212CF
:10016000CD610612EFB10212EFB10212EFB102122D
:10017000AB6D06126D7B0612B16D0612EFB1021265
:10018000EFB10212EFB10212EFB10212EFB102129F
:10019000A1570612EFB10212EFB10212EFB1021233
:1001A000EFB1021255E30612EFB10212EFB10212E3
:1001B000EFB10212EFB10212EFB10212EFB102126F
:1001C000EFB10212EFB10212EFB102120000000013
:1001D000000000000000000000000000000000001F
:1001E000000000000000000000000000000000000F
:1001F00000000000000000000000000000000000FF
:0402000000000000FA
:1002040004F092BE0138B0F1807F0BD24FF0E023AE
:10021400E021054A586182F82310002007229861E2
:100224001A6170470120704700ED00E0014B43F86C
:100234002010704730B00C50014B53F82000704729
:1002440030B00C50024A936E60F31D5393667047AE
:1002540000A00C5038B550B1184C6368DBB2072BC2
:1002640001D1002038BD6368DBB20F2BF9D0134CE9
:100274006368DBB2072BF4D06368DBB20F2BF0D0DA
:10028400102818D80E4BC340DB0714D500294FF0B3
:1002940021040CBF202101210A4D8440EB6D8140D3
:1002A40023EA04030B43EB65002ADAD041F28830D9
:1002B40005F00EFDD5E70120D4E700BF00B00050E3
:1002C4000101010000A00C5038B5EFF310830125A3
:1002D40085F31088022005F019FC284604F0C4FBBD
:1002E4002A4600210820FFF7B5FF4FF4FA5005F025
:1002F40011FD002004F032F9044628B905F076FC1B
:100304002946204604F008FA104B114C002063677C
:10031400FFF792FF014620F07F4020F00F0028B93C
:1003240041F4A04141F05001FFF780FF23685B07CF
:1003340006D52368074823F00403236005F0C8FCAE
:10034400034A136843F004031360FEE715C0500A20
:1003540000A00C50A0860100044B1A7822B118B1F9
:10036400DB780370002070470120704799980020C3
:10037400044B1A7822B118B15B7B037000207047DC
:10038400012070479998002003280ED8084A52F893
:10039400203029B143F0060342F820300020704792
:1003A40023F0060343F00403F6E70120704700BF7F
:1003B4005CB00C5003289DBF034B53F82000C0F3DE
:1003C40040204FF0FF3070475CB00C5003280CD82D
:1003D400074B53F82020920707D553F8202061F3E8
:1003E400000243F82020002070470120704700BF1E
:1003F4005CB00C5059B1032809D8064B53F820308F
:10040400002013F0020318BF01230B707047012072
:10041400704700BF5CB00C50F8B50746002004F0EC
:100424009DF800210446084604F076F904F0C8F863
:10043400064604F0C8F805463846FFF703FF0020D7
:1004440005F046FC282005F043FC04F01FF904F0F5
:1004540025F9304604F012F9284604F013F9214630
:10046400002004F059F9BDE8F840002005F030BC44
:100474002DE9F04F89B018220446002102A806F0A5
:100484001DFC674B9A6E0023C2F30952009201933C
:10049400002C00F0A980634904F5EA33BF338B4292
:1004A40003D9012009B0BDE8F08F002C00F39E8031
:1004B4006FF016056FF02F0B6FF0480A6FF06409A8
:1004C4006FF081086FF0A00E6FF4927C6FF0E30779
:1004D4006FF49870544E5549554B6442ADF81C1056
:1004E40042F21071ADF81E30B4FBF1F3ADF81A000E
:1004F400581EADF81860C6B20A2E01FB1344ADF8BD
:100504000850ADF80AB0ADF80CA0ADF80E90ADF8F7
:100514001080ADF812E0ADF814C0ADF8167078D8BC
:1005240008AD05EB400005EB430330F9180C33F933
:10053400183C1B1A634393FBF1F30344134440F246
:10054400FE3293420093ACD804226946032006F09D
:1005540057FC0028A5D0042203200DEB020106F06D
:10056400FBFB00289DD0DDE900329A4299D103F0CB
:1005740047FD0546002003F0F1FF064604F020F88D
:10058400804604F020F8264A0746546F14F001040C
:1005940006D1536F3C2043F00103536705F098FBE9
:1005A4000021084604F0B8F80098FFF74BFE282015
:1005B40005F08EFB04F06AF804F070F8404604F08D
:1005C4005DF8384604F05EF80020314604F0A4F8E3
:1005D400002005F07DFB24B9114A536F23F0010379
:1005E4005367284603F010FD00205BE716254FF003
:1005F4002B0B4FF03F0A4FF052094FF064084FF0B5
:10060400750E4FF0860C9527A526B320C121CE2365
:1006140064E714FB05F494FBF1F4A3188FE700BF1F
:1006240000A00C507EA90300F6FEFFFFA4FEFFFF0E
:1006340076FEFFFF2DE9F341364B9B6EC3F309535E
:10064400B3F5E57F009353D04FF4E5730422694674
:100654000320009306F0D4FB002857D00422032083
:100664000DEB020106F078FB00284FD0DDE90032E3
:100674009A424BD103F0C4FC0546002003F06EFF00
:10068400064603F09DFF804603F09DFF214A07467E
:10069400546F14F0010406D1536F3C2043F001035E
:1006A400536705F015FB0021084604F035F800985F
:1006B400FFF7C8FD282005F00BFB03F0E7FF03F06C
:1006C400EDFF404603F0DAFF384603F0DBFF00207D
:1006D400314604F021F8002005F0FAFA24B90D4A55
:1006E400536F23F001035367284603F08DFC0BE09E
:1006F400042203200DEB020106F02EFB0028A3D0F8
:10070400DDE900329A429FD1002000E0012002B0CE
:10071400BDE8F08100A00C5070B590F82E3004466E
:100724000E4673B103F06CFC0546204602F0FCFB58
:100734003146204602F0B1FB2846BDE8704003F084
:1007440063BC70BD03F0E0BA10B50C4603F0DCFAEC
:1007540020B12146BDE81040FFF7DEBF10BD000008
:1007640008B503F0A1FA0A4B1B787BB100280DDB16
:10077400084B03EB401006F027FB38B1BDE80840F6
:1007840040F2D7120449054806F072BB08BD00BF09
:10079400ACDF0120140B0220CF3700206F6600204D
:1007A40010B5044603F096FA08B103F0ACFA044B12
:1007B400186803F029FC2046BDE81040FFF7D0BFBD
:1007C400100B022008B503F09FFA18B1BDE80840E9
:1007D40002F0BABA08BD0000034B1B7843FA00F0DC
:1007E40000F00100704700BF0C0B022010B503F0AD
:1007F4005BFA0F4B04461B78C3B1002816DBC0B26A
:10080400FFF7EAFF90B14FF0FF3006F0E1FA01463E
:10081400084800EB441006F013FB38B1BDE8104063
:1008240040F2C5120449054806F022BB10BD00BFC2
:10083400ACDF0120140B0220DF3700206F6600209C
:1008440010B50446FFF7D2FF03F0DAFB054B18603E
:10085400204603F03FFA18B1BDE8104003F052BA45
:1008640010BD00BF100B02202DE9F84F07468A4641
:10087400164603F049FA044600286FD0002E47D0EC
:1008840090F82B30002B69D1436B3D46002B5FD190
:1008940032463946504606F0E7FA39E02069FFF758
:1008A400CFFF03F0ADFB636B074601209847594621
:1008B40023688029A8BF8021BBF1030FC3F884807B
:1008C40004DD4AEA05039B072A4624D008460AF1B8
:1008D400FF332A18954236D12268824413680020D7
:1008E40023F0010313602368ABEB010BC3F884907E
:1008F4002268136843F001031360636B984738461A
:1009040003F082FB2069FFF74BFFBBF1000FC5DC4E
:100914003046BDE8F88FAAF1040055F8043B40F8CE
:10092400043F531B0B44032BF7DC6FF003008B08CD
:10093400013B4343043208180AF1040A1844D51A47
:10094400AAEB030AC3E715F801CB03F801CFC1E70B
:10095400B3464FF6FF784FF0FF09D6E70026D7E7F6
:100964002DE9F04F85B083460F46914603F0CCF94C
:10097400044620B90026304605B0BDE8F08FB9F131
:10098400000FF7D090F82B30002BF3D187EA0B033C
:10099400DA0001D4FB0006D47B1E4B447B40B3F544
:1009A400801FC0F08A80484606F006FA02900028AC
:1009B400E0D039464A4606F057FA029F25690021DD
:1009C400AB45204634BF5D46ABEB0505FFF7A4FEFF
:1009D40094F82C60002E73D015F0010670D02069B5
:1009E400FFF72EFF3A4629460123204602F0EEF88F
:1009F4002069FFF7D5FE01260135013709F1FF38DB
:100A0400B8F1000F2ADD4FF4807294F82C309A402C
:100A140002F1FF3A0AEA050ABAF1000F019267DD12
:100A2400A2EB0A0AC245A8BFC2462069002B49D0DE
:100A34001AF0010F46D0FFF703FF3A4629462AF081
:100A44000103204601F0DDFF00233A18291820464F
:100A540002F0BCF82069FFF7A3FE564401212046AA
:100A6400FFF75AFEB9F1000F1FDD0BF01F024A44D5
:100A74002BF01F03BFF34F8F194647481A44C0F8A1
:100A84005C122031541A002CF9DCBFF34F8FBFF3F2
:100A94006F8FBFF34F8FC0F858322033D11A00291B
:100AA400F9DCBFF34F8FBFF36F8F029B002B3FF432
:100AB40062AF184606F05CF95DE7002302937DE718
:100AC400C8469DE7FFF7BCFE53463A4629462046F2
:100AD40001F097FF03902069FFF762FE039B9A459C
:100AE40001D00026BAE755445744A8EB0A085644F7
:100AF400AA467B1B0393039B03EB0A07019B434515
:100B040029DD751BB8F1000F05EB0A06A6DD94F884
:100B14002C30206983B318F0010F2DD0FFF790FE1D
:100B240051463A4628F00103204601F06AFF054683
:100B34002069FFF735FEAA4420693D44FFF780FE93
:100B440000232A465146204602F040F82069FFF768
:100B540027FE464482E72069FFF772FE5146019B57
:100B64003A46204601F04DFF2069FFF719FE019B2C
:100B74009A44A8EB0308BEE7FFF762FE43463A46F1
:100B84005146204601F03DFF05462069FFF708FE67
:100B9400A845A6D1DDE700BF00ED00E02DE9F84F40
:100BA40006460F4603F0B0F80546002800F0C3805F
:100BB400002F00F0C08090F82B30002B40F0BD8057
:100BC4004069B846B8423AD32B693DD12869FFF74A
:100BD40037FE00212846FFF79FFD284602F061F802
:100BE400012104462846FFF797FD2869FFF7D8FD41
:100BF400002F1FDD06F01F03434426F01F06BFF33A
:100C04004F8F32464E493344C1F85C2220329D1A3C
:100C1400002DF9DCBFF34F8FBFF36F8FBFF34F8FFE
:100C2400C1F8586220369A1B002AF9DCBFF34F8FB3
:100C3400BFF36F8F201E18BF0120BDE8F88F002876
:100C4400FBD007468046C1E74FF4805A9E4234BF2A
:100C5400B146A6EB030995F82C300AFA03F3591EA2
:100C640011EA090F0BD0CB223649374806F000F9B8
:100C74004FF0FF3401212846FFF74EFDB8E7394015
:100C840001D0D122F0E77C1E5A421C44284609EACE
:100C9400020914404FF4803BFFF73EFD95F82C30D9
:100CA4000BFA03F2511E11EA090F07D1A24205D82B
:100CB4004FF4803202FA03F18C420CD20AFA03F2A6
:100CC400A24203D8013A12EA090F2FD0003C18BF00
:100CD40001246442CEE72869FFF7B2FD494628465D
:100CE40001F0B8FF2869FFF75BFD4FF4803295F8F7
:100CF4002C3002FA03F1641A8944DBE72869FFF710
:100D04009FFD4946284601F07EFF2869FFF748FD0C
:100D140095F82C300AFA03F29144A41A0BFA03F260
:100D2400511E11EA090F01D19442B7D20AFA03F312
:100D34009C42E3D2CAE701207FE700207DE700BFA1
:100D440000ED00E0BE3700207B660020F7B5154DAE
:100D54002C781CBB144B6F469A8818689B79ADF8A5
:100D640004208DF80630009003F09CF801220F4B0C
:100D74000F4E28701A70E2B21046FFF72DFD40B1F5
:100D840031328DF80520002301223946304606F021
:100D940043F80134052C06F12006ECD1287803B081
:100DA400F0BD00BF0C0B02207D660020ACDF0120EB
:100DB400140B022008B5FFF7C9FF002008BD7274A8
:100DC4005F6E6F725F65726173655F726F6D0072E3
:100DD400745F666C6173685F756E6C6F636B0072D1
:100DE400745F666C6173685F6C6F636B00000020F6
:100DF4007047002070470000F8B504460138C0B2BF
:100E0400FD2816D800250D4E56F8040B077837B97F
:100E14000135062DF8D12046FFF7EBFF0DE0A74280
:100E240005D14778974202D187788F4203D00830A2
:100E3400ECE7002001E003B11D70F8BDB0380020DC
:100E440007B50DF10703FFF7D7FF064B40B14FF489
:100E540005719DF8072001FB023003B05DF804FB27
:100E64001846FAE7E83A002008B50023FFF7C4FF64
:100E740008B1406808BD4FF40020FBE708B5002323
:100E8400FFF7BAFF10B1C07800F0010008BD000000
:100E940008B50023FFF7B0FF30B1C378034803F06F
:100EA4000603022B18BF002008BD00BF00C0FF00CE
:100EB400203A0020783900204039002020390020D1
:100EC400F0380020C8380020C22539000000000294
:100ED400C225370000008000C22019010000000272
:100EE4002570180000000001000000000000000050
:100EF40020411900000000022040190000000002F7
:100F0400204319000000000285201901000000029E
:100F140085201A0100000004000000000000000009
:100F2400C8601900000000020B4019000000000214
:100F3400C84019000000000200000000000000008A
:100F4400EF60190000000002EF70190100000002B8
:100F5400E542190000000002EF4019000000000201
:100F640068491900000000025E40190000000002F8
:100F74000000000000000000856016010000400031
:100F840085601701000080008560180100000001E1
:100F94008565180100000001856318010000000147
:100FA4008520170100008000852018010000000141
:100FB4002570160000004000EF60180000000001DA
:100FC4000B601800000000015E50180000000001D2
:100FD400A128180000000001C84318010000000106
:100FE400C840180000000001C8401700000080003D
:100FF4002040170100008000CD60180000000001AF
:10100400B340170100008000B34016010000400007
:10101400B360140000001000000000000000000095
:101024008560150100002000856014010000100097
:101034008560130000000800C86014000000100060
:10104400C860150000002000C860160000004000C1
:10105400C860170000008000C8601800000000018C
:101064000B40170000008000F84218000000000147
:101074005E701700000080005E4018000000000150
:10108400EF6016000000400020401801000000013D
:101094002041180000000001205018000000000149
:1010A400EB60130000001000EB601400000010005F
:1010B4001C40180000000001684017000000800078
:1010C40068401800000000010B40180000000001F7
:1010D400B340180100000001EF40180000000001B7
:1010E40000000000000000000085601500000300FF
:1010F40000000001001000000600000000000000D5
:1011040001040000000000000001050001000000CF
:1011140000000101010100000000000100000000C6
:1011240000000000000300010000000201010B00A8
:10113400010800000201013B000208000002010155
:101144006B0003080000020101BB00020000020260
:101154000201EB00030400030203019F00010000ED
:10116400000000010000000000000000000000007A
:10117400000000000000000000000000000000006B
:10118400000000000000000000000000000000005B
:1011940000000000000000000000990000000000B2
:1011A400000001660000000000000001350001009D
:1011B40000000000015000000000000000010201D6
:1011C40001000000020101320103000000020101DC
:1011D400000000000000000000000000000000000B
:1011E4000000810000000000020101200000000056
:1011F40000020101520000000000020101D80000B9
:101204000000000201016000000000000000010075
:1012140000000000000000000000000000000000CA
:1012240000000000000000000000000000000000BA
:1012340000000000000000000000000000000000AA
:10124400000000000000000000000000000000009A
:10125400000000000000000000000000000000008A
:10126400000000000000000000000000000000007A
:10127400000000000000000000000000000000006A
:10128400000000000000000000000000000000005A
:10129400000000000000000000000000000000004A
:1012A400000000000000000000000000000000003A
:1012B400004B000108000002010148000108000081
:1012C400020101420101000000020101440000008A
:1012D4000000020101B90000000000000001AB00A1
:1012E40000000000000001ED0007070007020701ED
:1012F4005A00010800000201010000000085601688
:1013040000000300000000010010000006000000BF
:1013140000000000010400000000000000010500BE
:1013240001000000000001010101000000000001B3
:1013340000000000000000000003000100000002A3
:1013440001010B00010800000201013B000208003A
:10135400000201016B0003080000020101BB00024E
:10136400000002020201EB00030400030203019FD8
:101374000001000000000001000000000000000067
:101384000000000000000000000000000000000059
:101394000000000000000000000000000000000049
:1013A40000000000000000000000000000009900A0
:1013B40000000000000001660000000000000001C1
:1013C4003500010000000000015000000000000092
:1013D40000010201010000000201013201030000CA
:1013E40000020101000000000000000000000000F5
:1013F4000000000000008100000000000201012044
:10140400000000000002010152000000000002017F
:1014140001D800000000000201016000000000008B
:1014240000000100000000000000000000000000B7
:1014340000000000000000000000000000000000A8
:101444000000000000000000000000000000000098
:101454000000000000000000000000000000000088
:101464000000000000000000000000000000000078
:101474000000000000000000000000000000000068
:101484000000000000000000000000000000003127
:101494000101000000000001000000000000000045
:1014A4000000000000000000000000000000000038
:1014B4000000000000000000000000000000000028
:1014C40000000000004B0001080000020101480078
:1014D40001080000020101420101000000020101B3
:1014E400440000000000020101B9000000000000F7
:1014F4000001AB0000000000000001ED0007070040
:10150400070207015A00010800000201010000005F
:1015140000EF60190000030000000001001000004B
:1015240006000000000000000104000000000000AC
:10153400000105000100000000000101010100009C
:101544000000000100000000000000000003000192
:101554000000000201010B00010800000201013B30
:1015640000020800000201016B00030800000201F0
:1015740001BB0002000002020201EB0003040003AD
:101584000203019F000100000000000100000000B0
:101594000000000000000000000000000000000047
:1015A4000000000000000000000000000000000037
:1015B4000000000000000000000000000000000027
:1015C4000000990000000000000001660000000017
:1015D400000000013500010000000000015000007F
:1015E40000000000000102010100000002010132BC
:1015F4000103000000020101C80001000000000016
:1016040001C501010000000000018100000000008C
:10161400020101200000000000020101520000004C
:101624000000020101D80000000000020101600076
:10163400000000000000011500010000000000018E
:10164400110101000000000001B7000000000000CB
:101654000001E90000000000000001130001000087
:10166400000301010C00010800000301016C0003E8
:10167400080000030101EC0003040003030301124A
:101684000101000000030101340103000000030113
:1016940001210000000000030101DC000000000043
:1016A4000301010000000000000000000000000031
:1016B4000000000000000000000000000000000026
:1016C4000000000000000000000000000000000016
:1016D4000000000000000000004B000108000003AF
:1016E400010148000108000003010142010100005A
:1016F40000030101440000000000030101B90000DF
:10170400000000000001AB0000000000000001ED3B
:1017140000070700070307015A000108000002013F
:101724000100000000C8601900000300000000016F
:10173400001000000600000000000000010400008A
:10174400000000000001050001000000000001018C
:101754000101000000000001000000000000000082
:10176400000300010000000201010B000108000059
:101774000201013B00020800000201016B000308A2
:101784000000020101BB0002000002020201EB00A2
:10179400030400030203019F000100000000000194
:1017A4000000000000000000000000000000000035
:1017B4000000000000000000000000000000000025
:1017C4000000000000000000000000000000000015
:1017D4000000000000009900000000000000016605
:1017E40000000000000000013500010000000000BE
:1017F400015000000000000000010201010000008F
:10180400020101320103000000020101C8000100CD
:101814000000000001C5010100000000000181007A
:10182400000000000201012000000000000201018C
:10183400520000000000020101D800000000000274
:10184400010160000000000000000115000100001B
:1018540000000001110101000000000001B70000B8
:10186400000000000001E900000000000000010386
:1018740000010000000301010B0001080000030146
:10188400016B0003080000030101EB0003040003E3
:1018940003030102010100000003010132010300FE
:1018A4000000030101200000000000030101D80032
:1018B400000000000301010000000000000000001F
:1018C4000000000000000000000000000000000014
:1018D4000000000000000000000000000000000004
:1018E400000000000000000000000000004B0001A8
:1018F400080000030101480001080000030101423F
:101904000101000000030101440000000000030184
:1019140001B90000000000000001AB00000000005D
:101924000000010000000000000000005A0001084F
:101934000000020101000000002041190000030022
:10194400000000010010000006000000000000007C
:101954000104000000000000000105000100000077
:10196400000001010101000000000001000000006E
:1019740000000000000300010000000201010B0050
:10198400010800000201013B0002080000020101FD
:101994006B0003080000020101BB00020000020208
:1019A4000201EB00030400030203019F0001000095
:1019B4000000000100000000000000000000000022
:1019C4000000000000000000000000000000000013
:1019D4000000000000000000000000000000000003
:1019E400000000000000000000009900000000005A
:1019F4000000016600000000000000013500010045
:101A0400000000000150000000000000000102017D
:101A14000100000002010132010300000002010183
:101A2400C80001000000000001C501010000000021
:101A340000018100000000000201012000000000FC
:101A440000020101520000000000020101D8000060
:101A54000000000201016000000000000000011508
:101A6400000100000000000111010100000000005D
:101A740001B70000000000000001E90000000000C0
:101A84000000011300010000000301010C00010823
:101A940000000301016C0003080000030101EC00D5
:101AA4000304000303030112010100000003010108
:101AB40034010300000003010121000000000003C1
:101AC4000101DC00000000000301013101010000FC
:101AD4000000000100000000000000000000000001
:101AE40000000000000000000000000000000000F2
:101AF40000000000000000000000000000000000E2
:101B0400004B000108000003010148000108000027
:101B1400030101420101000000030101440000002F
:101B24000000030101B90000000000000001AB0047
:101B340000000000000001000000000000000000A0
:101B44005A000108000002010100000000C225390A
:101B54000000003C600000000010000006000000CF
:101B64000000000001040000000000000001050066
:101B7400010000000000010101010000000000015B
:101B8400000000000000000000030001000000024B
:101B940001010B00010800000201013B00020800E2
:101BA400000201016B0003080000020101BB0002F6
:101BB400000002020201EB00030400030203019F80
:101BC400000100000000000100000000000000000F
:101BD4000000000000000000000000000000000001
:101BE40000000000000000000000000000000000F1
:101BF4000000000000000000000000000000990048
:101C04000000000000000166000000000000000168
:101C140000000000000000000000000000000000C0
:101C24000000020101000000020101320103000072
:101C340000020101C80001000000000001C501010B
:101C440000000000000181000000000002010120EA
:101C54000000000000020101520000000000020127
:101C640001D8000000000002010160000000000033
:101C74000000011500010000000000011101010035
:101C84000000000001B70000000000000001E900AE
:101C94000000000000000103000100000003010136
:101CA4000B00010800000301016B0003080000039E
:101CB4000101EB000304000303030102010100001E
:101CC40000030101320103000000030101200000B0
:101CD400000000030101D80000000000030101001E
:101CE40000000000000000000000000000000000F0
:101CF40000000000000000000000000000000000E0
:101D040000000000000000000000000000000000CF
:101D140000000000004B0001080000020101000067
:101D240000000000000000000000000000000000AF
:101D3400000000000000000000B9000000000000E6
:101D44000001AB00000000000000010000000000E2
:101D5400000000005A000108000002010100000018
:101D640010B5E0B1D9B100230122436080F82A20E4
:101D74000C6804604A6880F828208A680261CA688E
:101D840012054261FF22C4F884204FF050240168F8
:101D94008C6701680A62016818464A6410BD012014
:101DA400FCE738B102680020136C23F0FF031943E9
:101DB400116470470120704770B5C8B105689DF97A
:101DC40018609DF91C00AC6C40EAC60040EAC323CD
:101DD4009DF910006FF3140443EA00239DF91400E5
:101DE40043EA801343EA423242EA81412143A9642F
:101DF40070BD40B102680020136C23F47F4343EAB2
:101E04000121116470470120704770B5C8B105689D
:101E14009DF918609DF91C002C6D40EAC60040EA4B
:101E2400C3239DF910006FF3140443EA00239DF9C2
:101E3400140043EA801343EA423242EA81412143D7
:101E4400296570BD18B103680020596070470120EE
:101E5400704730B103680139C1F31301002059629E
:101E640070470120704730B103680139C1F3130191
:101E74000020996370470120704708B10368196214
:101E8400704718B10368186900F00100704720B169
:101E94000268536943F001035361704738B50D4636
:101EA4000446A8B10368DA61436B0BB1012098477B
:101EB40023689D612046FFF7E4FF0028FAD02046FE
:101EC400FFF7E5FF636B0BB100209847002038BD96
:101ED4000120FCE718B10268536919435161704746
:101EE40018B103681869C0F3C000704728B10368CB
:101EF4005868C04300F0010070470120704708B1E2
:101F040003685868704720B10268536D61F38E23EB
:101F14005365704708B10368D960704710B103680E
:101F2400D868C0B2704770B5E8B105689DF91C6007
:101F34009DF92000AC6A40EAC6009DF910606FF379
:101F4400150440EAC6209DF9146040EA06209DF974
:101F5400186040EA861040EA433343EA824242EA88
:101F640041512143A96270BD70B5E8B105689DF97E
:101F74001C609DF92000EC6B40EAC6009DF91060DE
:101F84006FF3150440EAC6209DF9146040EA062068
:101F94009DF9186040EA861040EA433343EA8242DE
:101FA40042EA41512143E96370BD50B103681A68A4
:101FB40021B142F0010200201A60704722F00102B0
:101FC400F9E70120704750B103681A6821B142F45F
:101FD400001200201A60704722F40012F9E7012071
:101FE400704750B103689A6821B142F01002002092
:101FF4009A60704722F01002F9E70120704750B14F
:1020040003681A6821B142F4803200201A607047D4
:1020140022F48032F9E70120704750B103681A684E
:1020240021B142F4802200201A60704722F48022F9
:10203400F9E70120704730B580B10568BDF80C00A0
:10204400AC68800640EA8353002043EA81416FF381
:102054009E1441EA82122243AA6030BD0120FCE7AB
:1020640030B102680020936861F302039360704703
:102074000120704750B103689A6821B142F02002F0
:1020840000209A60704722F02002F9E7012070478F
:1020940050B103681A6821B142F0807200201A60BE
:1020A400704722F08072F9E70120704750B103684D
:1020B4001A6821B142F4000200201A60704722F429
:1020C4000002F9E70120704750B103689A6821B112
:1020D40042F0004200209A60704722F00042F9E783
:1020E4000120704750B103689A6821B142F0080298
:1020F40000209A60704722F00802F9E70120704737
:1021040040B102680020936D23F47F0343EA014148
:10211400916570470120704760B100685206836D75
:1021240042EA012123F0007323F47F4319438165BC
:10213400002070470120704710B5F0B10468A06D0D
:10214400B1B1022A84BF023AD2B213026FF30F0074
:1021540003F4FE430343120654BF43F0806343F089
:10216400A06343F00A0323F000730020A36510BDAD
:10217400034B034043F00073F7E70120F7E700BF88
:102184000000FFFA30B10268936C23F4783343EA19
:1021940041319164704730B10268136D23F4783390
:1021A40043EA41311165704748B10368D3F8882088
:1021B40009B141F480310020C3F888107047012030
:1021C400704718B10368D3F8880080B270477FB5B0
:1021D400054600283DD0C46801B394F86A30002B4A
:1021E40037D094F9726094F96E3094F96C1094F9C4
:1021F4006D20039694F97160029694F970600196CB
:1022040094F96F400094FFF7D7FDEB6893F86A10D8
:102214002846FFF7C6FD002004B070BD94F8463090
:10222400BBB194F94E6094F94A3094F9481094F98A
:102234004920039694F94D60029694F94C600196F6
:1022440094F94B400094FFF7B7FDEB6893F8461000
:10225400DEE70120E0E77FB50546002836D0C468F4
:10226400E1B194F96E6194F96A3194F9681194F9C1
:102274006921039694F96D61029694F96C61019653
:1022840094F96B410094FFF797FDEB6893F866119E
:102294002846FFF786FD002004B070BD94F95C6108
:1022A40094F9583194F9561194F95721039694F9F5
:1022B4005B61029694F95A61019694F9594100942C
:1022C400FFF77AFDEB6893F85411E1E70120E3E7A7
:1022D40030B5C46887B004B338291ED801EBC101F6
:1022E4000C44237CCBB194F9185094F9133094F92D
:1022F400122094F91110049594F91750039594F948
:102304001650029594F91550019594F914400094CF
:10231400FFF709FE002007B030BD0120FBE7F0B550
:10232400C4680646174687B054B3382928D801EB49
:10233400C1052C44237C1BB394F918C094F91330C1
:1023440094F9122094F91110CDF810C094F917C023
:10235400CDF80CC094F916C0CDF808C094F915C096
:10236400CDF804C094F914400094FFF7DCFDF36841
:102374003A462B443046197CFFF790FD07B0F0BD78
:102384000120FBE72DE9F0419046C268044686B07F
:10239400002A72D0382970D801EBC107D619317CD4
:1023A40000296AD0382B68D803EBC3052A44137C70
:1023B400002B62D096F918C096F9133096F91220C2
:1023C40096F91110CDF810C096F917C0CDF80CC0CD
:1023D40096F916C0CDF808C096F915C0CDF804C01A
:1023E40096F914600096FFF79EFDE068284490F982
:1023F400186090F9133090F9122090F91110049696
:1024040090F91760039690F91660029690F915609A
:10241400019690F9140000902046FFF7A5FD0022D4
:1024240023680121DA67E36822682B441B7C204679
:10243400D36223680C9AC3F88020FFF7E0FD20469E
:10244400FFF7EBFD2368C3F81C80E36822683B4474
:102454001B7C93612046FFF743FD0028FAD0092135
:102464002046FFF737FD0021FFF7C9FD2046FFF79F
:10247400D4FD084606B0BDE8F0810120FAE700006B
:1024840070B50446002841D0C368002B3ED0002913
:102494003CD093F893510121CDB3FFF7DAFC00222D
:1024A40014212046FFF73BFF2046FFF728FDC30712
:1024B40004D540F23E413D4804F0E6FC00221521DB
:1024C4002046FFF72CFF054620B100222046114686
:1024D400FFF725FF02212046FFF7B4FC0121204627
:1024E400FFF7B7FC00222B212046FFF718FF6DB140
:1024F40001212046FFF7ADFC002202212046FFF710
:102504000EFF2046FFF7F2FC0028F5D070BDFFF760
:10251400A0FC2A4602212046FFF701FF2046FFF7D0
:10252400EEFC2A4614212046FFF7F9FE10B9204696
:10253400FFF7E5FCE3681B7AABB3012103F00F0559
:102544001B0901FA03F3DBB20DB11D46002300227F
:102554001521204643EA0525FFF7E1FE064620B192
:10256400002220461146FFF7DAFE29462046FFF7EF
:1025740069FC02212046FFF76CFC0022032120465F
:10258400FFF7CDFE002EC1D001212046FFF761FCEC
:10259400002202212046FFF7C2FE2046FFF7A6FCD8
:1025A4000028F5D0B2E70225D1E700BFF565002089
:1025B40038B504460D46FFF763FF29462046BDE8BB
:1025C4003840FFF704BE38B504460D46FFF758FF00
:1025D40029462046BDE83840FFF73DBE10B5044605
:1025E40040B10268936A6FF3150343F4802343F008
:1025F4000103936203212046FFF72BFC00229F2155
:102604002046FFF74BFC2046FFF779FC20F07F4083
:1026140010BD70B5044600283ED0C368012193F86C
:102624009351002D3BD0FFF714FC002202212046D9
:10263400FFF775FE88BB2046FFF761FCC0B2E36874
:10264400DD790DB120EA0505002215212046FFF7AA
:1026540066FE064620B1002220461146FFF75FFEC3
:1026640029462046FFF7EEFB01212046FFF7F1FB48
:10267400002203212046FFF752FE6EB101212046BD
:10268400FFF7E7FB002202212046FFF748FE204621
:10269400FFF72CFC0028F5D070BD0020CFE7FFF732
:1026A400D8FB2A4602212046FFF739FE00283ED1F6
:1026B4002046FFF724FCC6B2002214212046FFF76F
:1026C4002EFE18B92046FFF71AFCC5B2E368D97983
:1026D40009B126EA01010022204641EA0525152117
:1026E400FFF71DFE064620B1002220461146FFF7E3
:1026F40016FE29462046FFF7A5FB02212046FFF7D8
:10270400A8FB002203212046FFF709FE002EC3D0B8
:1027140001212046FFF79DFB002202212046FFF7FE
:10272400FEFD2046FFF7E2FB0028F5D0B4E72E4675
:10273400C2E7F8B5044650B30023FF2201214FF04D
:1027440050260568436080F82A1080F82830C5F8C0
:1027540084200568AE6705682A6205686A6480F8A3
:102764002B308360FFF721FC2046FFF737FFC0F3CF
:102774000727C0F30745C6B229463A463046FEF756
:102784005FFB0146E06020B92046FFF70EFC012004
:102794000AE03A4629463046FEF766FB00B160611E
:1027A40094F82B500DB10020F8BD2046FFF731FFFF
:1027B4006369B3F1807F0DD921212A462046FFF7B2
:1027C400AEFD94F8281019B92046FFF7FCFEEAE79D
:1027D4000121F9E794F8281019B92046FFF7E8FE1B
:1027E400E1E70121F9E760B1006850B1836D0906A2
:1027F40023F0807301F0807123F0FF031143194328
:10280400816570472DE9F04791460546002844D07C
:10281400C468B4B1B1F5805F3FD3A2790132B1EBA2
:10282400023F3AD2E07AC1F309021A44B2EB002F14
:1028340033D81C460027A246AB6BCE18BAF1000F62
:1028440002DC2046BDE8F087BAF1400FD046A8BFAD
:102854004FF0400828464146FFF7FBFA3246322142
:102864002846FFF75CFD3B46002FB8BFFB1C4FEA30
:10287400A80123F0030201EBA3014A4409EB8101FF
:102884008A4204D147444644AAEB080AD6E72846BC
:10289400FFF735FB42F8040BF2E70024D1E710B54B
:1028A4000446F8B1C368EBB10121FFF7D2FA002264
:1028B40014212046FFF733FD28B92046FFF71FFBFC
:1028C400C0B2C00810BD02212046FFF7C2FA0022A0
:1028D40002212046FFF723FD2046FFF710FBC0F33B
:1028E4000720EEE7FF20EDE738B50446D0B10368D2
:1028F400AB211D6815F0010502BF1A6842F0010200
:102904001A600268936A6FF3150343F0010393623C
:102914000022FFF7C3FA25B92268136823F00103E4
:10292400136038BD0120FCE718B1C068003818BF37
:1029340001207047002070472DE9F04788469946EA
:102944000446002845D08368002B42D0B9F1000F1B
:102954003FD001680F6832B310229A600023826866
:102964004E465361826893618268D3608022836893
:102974001A6105680435A06804F046FA50BBA068E3
:1029840004F056FA30BB236847F020071F60226822
:1029940009F1FF335362414633462A46A068BDE835
:1029A400F04704F00DBA4FF400719A60836809F19E
:1029B400030659614FF40061836845469961836851
:1029C400B608DA60802283681A61036803F1040898
:1029D400D1E70120BDE8F08710B50A46044670B17E
:1029E400806860B1616B11B14FF0FF32002104F0D7
:1029F40043FA2268136823F02003136010BD0120FA
:102A0400FCE72DE9F04F99B004460E469146FFF7D6
:102A14008BFF18B3002B00F0D780B3F5807F28BF5D
:102A24004FF48073A1681D46626994F82830002928
:102A34003BD0B2F1807F14D9022B14BF272728275B
:102A440039462046FFF744FC49462B4601222046DE
:102A5400FFF772FF014648B10025284619B0BDE8CA
:102A6400F08F022B14BF16271727E9E732462046BA
:102A7400FFF755FC01212046FFF7F5F90123324603
:102A84000093394602232046FFF77CFC0028E3D15B
:102A94004FF47A712046FFF79FFF0028DCD12268AB
:102AA400136823F020031360D7E7B2F1807F40F26C
:102AB4008280022B14BF272328232F464FF00008BF
:102AC40003934FF6FC7A402FD4BF0AEA070A0AF0B0
:102AD400400ABAF1000F3FD0002220461146FFF70A
:102AE4001EFC09EB08030DF1200C03F1400E6246B5
:102AF40018685968083303C273459446F7D14FF0F8
:102B0400000B4FEAAA0208AB53F8041B20460592B7
:102B14000493FFF797F9059A0BF1010B9345049B76
:102B2400F2D151462046FFF794F92046039906EB6B
:102B34000802FFF7F4FB01212046FFF78AF900227F
:102B440002212046FFF7EBFB2046FFF7CFF90028D0
:102B5400F1D0A7EB0A07D0447B1E022B30D823699F
:102B6400464433431B683A4609EB080107A8079318
:102B740004F07AF9002220461146FFF7D0FB0799AA
:102B84002046FFF75FF904212046FFF762F9324639
:102B940020460399FFF7C3FB01212046FFF759F9AB
:102BA400002202212046FFF7BAFB2046FFF79EF9D8
:102BB4000028F1D051E7022B14BF162317237CE71A
:102BC400002F3FF77EAF48E7184647E737B504695B
:102BD40012780C4373B114F8013C01398DF80630B6
:102BE40002238DF807200DF10602FFF70AFF0120EA
:102BF40003B030BD63788DF806208DF807300DF1F1
:102C040006020223F1E773B504460D46FFF78CFE76
:102C1400E8B163690A46B3F1807F4FF000012046B2
:102C240094BF1B262926FFF77AFB01212046FFF7D4
:102C34001AF901232A460093314602232046FFF75E
:102C4400A1FB003818BF0120404202B070BD4FF014
:102C5400FF30FAE773B504460D46FFF765FEE8B1A9
:102C640063690A46B3F1807F4FF00001204694BFA8
:102C74001D262A26FFF753FB01212046FFF7F3F810
:102C840001232A460093314602232046FFF77AFBAC
:102C9400003818BF0120404202B070BD4FF0FF3031
:102CA400FAE773B50446FFF73FFE30B3002201266E
:102CB40011462046FFF733FB01212046FFF7D3F8E6
:102CC400022300221E2120460096FFF75BFB051E0F
:102CD40018BF012594F828306D42022B07D163698F
:102CE4003146B3F1807F204604D9FFF76CFC2846B7
:102CF40002B070BDFFF75CFCF9E74FF0FF35F6E773
:102D040008B5E8B103680F4A93420CD002F580522B
:102D1400934215D1062001F021FC022805D1BDE81B
:102D2400084001F050BC0420F5E7032803D1BDE8B6
:102D3400084001F04BBC0120BDE8084001F0B6BCDE
:102D4400002008BD0010045038B5054608B900201D
:102D540038BDFFF7E3F804460028F8D02846FFF70B
:102D6400CFFFB0FBF4F0F3E708B1FFF737BCFF2067
:102D74007047F7B50D46044618B94FF0FF3003B05D
:102D8400F0BDC368002BF8D0B1F5805F876BF4D336
:102D94009B790133B1EB033FEFD2FFF780FDE2688B
:102DA4002B0B92790132B2EB153FE6D90126013B98
:102DB40006FA03F313EA000214D111462046FFF782
:102DC400AEFA3D4431462046FFF74DF802232A4629
:102DD400342120460096FFF7D5FA002818BF6FF07B
:102DE4000200CCE76FF00100C9E72DE9F7430E4676
:102DF40017461D46044618B9002003B0BDE8F08309
:102E0400C268002AF8D0B1F5805FF5D39379013315
:102E1400B1EB033FF0D2D27AC1F309032B44B3EBF5
:102E2400022FE9D8D0F83880FFF739FDE268330B78
:102E340092790132B2EB163FDED94FF00109013B22
:102E440009FA03F30342D7D1A36823B333212046FD
:102E5400FFF73EFA4A462B4639462046FFF76CFDFB
:102E640002460028C8D101462046FFF758FA4946D1
:102E74002046FEF7F8FF022333212046CDF80090C8
:102E840008EB0602FFF77EFA0028B5D12268136822
:102E940023F0200313602846AFE77FB504460A46B3
:102EA40051B3C56895F8FF31002B3BD090F828301A
:102EB400C3B395F9076295F9022295F9033295F99E
:102EC4000112039695F90662029695F90562019638
:102ED40095F904520095FEF76FFFE368204693F8D6
:102EE400FF11FEF75EFF0121204694F82D20FFF725
:102EF40023F9002004B070BDFFF71EF9636994F84C
:102F04002810B3F1807F06D919B92046FFF7A3F939
:102F1400EFE70121F9E719B92046FFF758F9E8E787
:102F24000121F9E70120E5E730B50546012487B022
:102F340078B104940024224621462346CDE9024474
:102F4400CDE90044FEF7EFFF224621462846FEF76E
:102F5400A5FF204607B030BD10B50446F0B10268A5
:102F64001420D2F8943043F00043C2F8943002F0B5
:102F7400AFFE2368D3F89420D205FBD5D3F8940090
:102F8400D3F89420C0B222F00042C3F8942094F8FD
:102F94002D3023F07F03034384F82D3010BD00004F
:102FA4002DE9F8430E4690461F460446002800F0DB
:102FB4009D80002900F09A80FEF7D2FE2068FFF77A
:102FC400B9FC3369002184F84430B3680546A3642E
:102FD400F36884F82C101B05E364022384F846305C
:102FE4003369C4F808805A1E5342534184F82B3085
:102FF400B8F1000F58D0002F56D03B68C8F8003005
:10300400A368FA685A601022A3689A608022A368B1
:10301400D960A3681A614FF48052A3685961A36808
:103024009961A368D961A3681A62A3685962C0B19F
:103034006FF07F43984214D0012694F82B30002B74
:103044003DD1002E3DD12046FFF74EFC304602F024
:103054003FFE322002F03CFE2046FFF785FE054687
:103064002FE001212046FEF74EFF664BA269204661
:103074009A424FF000028CBF01211146FFF7B3FBC7
:1030840020469DF82010FEF745FF94F845302BB1FB
:10309400012B10D100212046FEF7FAFF0121204622
:1030A400FEF783FF0026C8E7002DDED06FF07F43D4
:1030B4009D42C1D1D9E7022BF0D10121EBE7002ECB
:1030C400CAD025645FFA85F8C5F30729C5F3074517
:1030D4004A4629464046FDF7B3FE0746E06038B944
:1030E40001462046FEF761FFC4E9127701201BE088
:1030F4004A4629464046FDF7B7FE4A462946074652
:103104004046FDF7C5FE4A46A06329464046FDF702
:103114006EFEE06308B10368A3630FB1E7646761FF
:1031240094F82B3013B10020BDE8F883002E65D14C
:103134002046FFF76EFA6369B3F1807F30D93246D7
:1031440021212046FFF7EBF894F8283053B9314693
:10315400204684F82E60FFF736FA07212046FEF752
:103164007FFFE0E701212046FFF72DFA94F82E7047
:10317400012FF2D14A4629464046FDF77FFE38B179
:103184002046FFF7E9FE39462046FFF786FEE4E7CE
:10319400324631462046FEF7CFFF84F82E60DCE746
:1031A40094F8283033B93146204684F82E60FFF76E
:1031B400FFF9B8E701212046FFF7FAF994F82E70D9
:1031C400012F15D14A4629464046FDF757FE38B12E
:1031D4002046FFF7C1FE39462046FFF75EFEA2E710
:1031E400324631462046FEF7A7FF84F82E609AE760
:1031F400324631462046FEF79FFF94E784F82E308E
:1032040091E700BF00E1F5051FB50190019B114C4A
:103214000BB1206840B9002001F058FA0E4BB0FB06
:10322400F3F0019B20609BB1302882BF019B03F126
:10323400FF330193019B5BB10522019B013B434397
:10324400B3FBF2F30393039B5A1E0392002BFAD1B0
:1032540004B010BD2CEE012040420F0070B50E46A4
:103264001546044658B302220368DA600268936D77
:1032740023F00073936502680020D2F8943043F081
:103284000043C2F89430FFF7BFFF1420FFF7BCFFE0
:103294002068D0F89430DB05FBD5D0F89430D0F812
:1032A4009420DBB222F00042C0F894205A1E3270FF
:1032B40001220020043B2B702368DA6070BD0120DA
:1032C400FCE7000037B514460546002843D0002922
:1032D40041D0FEF745FD2846E1B2FEF71BFE284625
:1032E400FFF732FD1D4B984230D91D4B98422FD920
:1032F4001C4B984222D940F2B63440F274431A4A25
:10330400904288BF1C46002201212846FFF76BFA31
:1033140000212246022328460091FEF78CFE044633
:1033240048B906212846FEF79BFE044618B9012138
:103334002846FEF73AFE204603B030BD0B4B4FF44F
:103344003E749842DFD800221146DEE7B424FAE73F
:103354004FF4BE74F7E70124EDE700BF00366E01B9
:10336400006CDC0200D8B805000E27070087930321
:10337400F0B50E461746054687B0D8B1072200249B
:103384000323CDE903220121CDE90143009423461F
:10339400FEF7C9FD02212846FEF75BFD39462846A3
:1033A400FEF750FD3246C0212846FEF777FD204641
:1033B40007B0F0BD0120FBE72DE9FF410C4616469E
:1033C4001F460546002840D06B46214A10685168C4
:1033D40003C39068D16803C32846E1B2FEF774FEC4
:1033E40007F110036B4413F8088C4FEA48185FFA8E
:1033F40088F80CB304AB03EB560313F8104CA40089
:1034040044F0210464B204F0FD0200212846FFF7D1
:10341400AFFF711E284649B2FEF7B4FE42460421AE
:103424002846FFF7A5FF791E284649B2FEF7B3FEEA
:10343400002004B0BDE8F08106F110036B4413F8DA
:10344400104CA40044F00104DCE70120F1E700BFC4
:103454000A650020F0B50E461746054687B0D8B178
:10346400072200240223CDE903220121CDE90143EF
:1034740000942346FEF757FD04212846FEF7E9FC95
:1034840039462846FEF7DEFC3246C0212846FEF7C0
:1034940005FD204607B0F0BD0120FBE730B5054629
:1034A40085B0A0B100240721022390F82D20CDE996
:1034B40002115200CDE9004352B22346FEF77CFCD0
:1034C40021462846FEF76DFC204605B030BD01209C
:1034D400FBE730B5054685B090B1072100240223EF
:1034E400CDE90211CDE90043234690F92E20FEF7E1
:1034F4008CFC80212846FEF77CFC204605B030BDBC
:103504000120FBE7F0B5044687B000283BD090F8D3
:103514002B30052B34D0033B012B2ED80126032757
:103524000023072576B27FB21A4601212046CDE951
:103534000355CDE901570096FEF7F5FC0022FF2163
:103544002046FEF7ABFC94F82B30052B0FD100235B
:1035540001211A462046CDE90355CDE901570096CD
:10356400FEF7E1FC0022FF212046FEF797FC002035
:1035740002F0AEFB032002F0ABFB002007B0F0BD6D
:1035840003260227CCE70120F8E7000030B5044603
:1035940085B000286ED000296CD0FEF7E1FB2368CB
:1035A4000DF10E020DF10F0120461D68FFF756FEC6
:1035B40001212046FEF7AEFC2046FFF7C5FB2E4B4B
:1035C40005F00105984236D8142303218DF80E30F6
:1035D4008DF80F3008460023B42284F82D1084F8A7
:1035E4002E10062100902046FEF725FD07212046D7
:1035F400FEF736FD01212046FEF774FD9DF80E10FE
:103604002046FEF77DFD00229DF80F102046FEF7B0
:1036140083FD01212046FEF7C8FC01212046FEF768
:10362400D2FC2DB9154B1B6803F00303032B1DD1EA
:10363400002005B030BD124B98420BD903F137730B
:1036440003F5D84398420BD907211420082340F2EC
:103654003252C2E705210E20032340F2B632BCE702
:1036640006211120052340F27442B6E72046FFF7F5
:1036740049FFDDE70120DCE7016CDC0200000C50AF
:10368400011C4E0EF0B5044685B0002800F096806B
:10369400002900F09380FEF763FB23680DF10E020E
:1036A4000DF10F0120461E68FFF7D8FD01212046C9
:1036B400FEF730FC2046FFF747FB414B0546984296
:1036C400404F06F0010650D8142303218DF80E3024
:1036D4008DF80F30B4220023009120460621FEF716
:1036E400AAFC07212046FEF7BBFC01212046FEF779
:1036F400F9FC9DF80E102046FEF702FD00229DF80D
:103704000F102046FEF708FD01212046FEF7B2FC0B
:1037140001212046FEF749FC01212046FEF753FC17
:103724002EB994F82F3013B92046FFF7EBFEBD42B3
:103734003AD9254B9D423CD90622022388253B26B3
:1037440084F82E30012184F82D202046FEF7BCFC9D
:10375400324600212046FFF77DFE2A4604212046FA
:10376400FFF778FE002005B0F0BDB8420DD9164B26
:1037740098420FD903F1377303F5D84398420ED812
:103784001421082340F23252A6E70E21032340F20B
:10379400B632A1E71121052340F274429CE71721B8
:1037A40009234FF4BE6297E7042200230825332639
:1037B400C6E70522002308253726C1E70120D2E702
:1037C400016CDC02011C4E0E01882A1170B50E46F4
:1037D4001546044686B0F8B107220323CDE9012338
:1037E4000023CDE9032200930121FEF79CFB31461F
:1037F4002046FEF742FB02212046FEF72AFB29461B
:103804002046FEF71FFB4FF480326021204606B0AD
:10381400BDE87040FEF742BB06B070BD38B5044643
:103824000122FFF7B3FE2046FFF78EFA154B9842AC
:103834001FD9154B98421FD903F1F47303F5904334
:1038440098421CD942F28F7541F28F730F4A90420D
:1038540098BF1D4601212046FEF7C3FB2A46204699
:103864000021FFF7B3FF01212046FEF72DFC0020C5
:1038740038BD4EF28F75EDE74FF28F75EAE740F2EF
:103884008F75E7E781FE210A01D4650C01882A11AE
:103894001FB560B10721032390F82D20CDE9001353
:1038A400013A0023CDE9021152B2FEF785FA05B0C0
:1038B4005DF804FB1FB560B10721032390F82E20A7
:1038C400CDE90013013A0023CDE9021152B2FEF70B
:1038D4009CFA05B05DF804FB2DE9FF470B6904462B
:1038E40080F82B300B69033B032B00F28580DFE863
:1038F40003F0026358792046FFF748FE0322064688
:1039040008212046FFF734FD2046FFF71DFA4D4BF2
:1039140098425FD903F1A46303F5834398425BD9CA
:1039240003F1377303F5D843984257D9464B98426D
:1039340056D9464B984294BF072500254FF00008FE
:1039440007274FF0030A4FEA4509434609F1FF32BE
:1039540039462046CDE90277CDE9008AFEF72CFAF4
:1039640041462046FEF71DFA43466A1E3946204664
:10397400CDE90277CDE9008AFEF747FA8021204697
:10398400FEF737FA2B464A4601212046FFF714FD7D
:103994004FF6FF712046FEF707FC304604B0BDE841
:1039A400F0872046FFF76EFE2046FFF777FD20469E
:1039B400FFF78FFD0026EBE72046FFF7E7FD4322E4
:1039C400064608212046FFF7D3FC01212046FEF7D6
:1039D4006DFB99E70325B1E70425AFE70525ADE7BE
:1039E4000625ABE72046FFF719FF2046FFF750FFF7
:1039F4002046FFF75FFFDDE7002603254FF00108AF
:103A040002272046FFF75EFC33460622294620465D
:103A1400CDE90067CDE90258FEF7CEF9EB21204647
:103A2400FEF7BFF93346324629462046CDE9006702
:103A3400CDE90258FEF7E9F938212046FEF7D9F915
:103A44000646A5E70129DE0701EBC9130184D71750
:103A540030B5044687B0002855D00368002B52D0F7
:103A6400052926D10121FEF7A0FA01212046FEF7FF
:103A7400AAFA002507230222CDE9033301212046B7
:103A8400CDE9015200951A46FEF74DFA042120466D
:103A9400FEF7DFF929462046FEF7D4F92A462946DF
:103AA4002046FEF7FBF9642002F012F9002007B06B
:103AB40030BD062923D101212046FEF776FA0121E3
:103AC4002046FEF780FA002507230322CDE90333BD
:103AD40001212046CDE9015200951A46FEF723FA4A
:103AE40004212046FEF7B5F929462046FEF7AAF937
:103AF4002A4629462046FEF7D1F99620D4E7033911
:103B04000129D3D8D7E70120D1E700000000010242
:103B140003040000000004020601707372616D3139
:103B240000483A5C696E646976696475616C5C43EB
:103B34006F64655C5369466C695C5369466C692DB6
:103B440053444B5C637573746F6D65725C626F6133
:103B54007264735C736633326C6235322D6C6368E5
:103B64007370692D756C705F626173655C627370EC
:103B74005F696E69742E6300483A5C696E646976A5
:103B8400696475616C5C436F64655C5369466C6918
:103B94005C5369466C692D53444B5C647269766569
:103BA40072735C68616C5C6266305F68616C5F67ED
:103BB40070696F2E6300483A5C696E646976696463
:103BC40075616C5C436F64655C5369466C695C53F6
:103BD40069466C692D53444B5C64726976657273F3
:103BE4005C68616C5C6266305F68616C5F687061C0
:103BF4006F6E2E6300483A5C696E64697669647519
:103C0400616C5C436F64655C5369466C695C5369C1
:103C1400466C692D53444B5C647269766572735CBF
:103C240068616C5C6266305F68616C5F6D70692EA0
:103C34006300483A5C696E646976696475616C5CBA
:103C4400436F64655C5369466C695C5369466C698F
:103C54002D53444B5C647269766572735C68616C65
:103C64005C6266305F68616C5F7263632E630052EE
:103C7400545F454F4B203D3D2072003000666C611F
:103C8400736831000649431E13F8012F11F8010B24
:103C94000AB18242F8D0101A18BF4FF0FF307047B3
:103CA4001A65002070470000002310B5084A916C83
:103CB400814205D8D46C2144814201D958B210BD47
:103CC4000133052B02F15402F1D14FF0FF30F6E736
:103CD40044EA0120064A936C834206D8D26C13440A
:103CE400834294BF0020012070470020704700BF2A
:103CF400E8E7012003460244934200D1704703F8E9
:103D0400011BF9E77047704738B50546FFF7E2FF36
:103D1400044648B92846FFF7C7FF431C06D054227F
:103D2400034B02FB003038BD0248FCE72046FAE7AB
:103D340044EA0120E8E701200120704710B50C4651
:103D4400C9B12AB9022000F0B1FCB0FBF4F010BDF7
:103D540000F004FC0228024602D100F034FCF4E72F
:103D6400012802D100F02CFCEFE7044B0448032A9D
:103D740018BF1846E9E70846E9E700BF006CDC0213
:103D840000D8B8052DE9F74F542400252D4FDFF84E
:103D9400C4A004FB00749946DAF80030064688464D
:103DA4009346656313B1284C284B6363D8F80C30F1
:103DB400202B03D9002003B0BDE8F08F86B3012E79
:103DC40038D0B9F1010F04BF8F2384F82D30DAF80D
:103DD400003084F82E9043B1FFF7AEFF0122014674
:103DE40005460620FFF7AAFFA0616821184A5B4632
:103DF40001FB0622204641460095FFF7D1F8002832
:103E0400D8D1DAF80030EDB225633BB1542303FB7B
:103E14000677A36CFA6C1344A36423610120CAE7F8
:103E240000F0BAFF0122054601460420FFF786FF91
:103E3400A061C6E700F0B6FF3246054601460620FB
:103E4400F4E700BF44EA0120E8E70120A56600206A
:103E54003CE80120E4E701200020704770B50D4CD8
:103E64008AB026465422002105AD0B48FFF742FFD5
:103E74000FCE0FC533682B6001AD04F114030FCBD3
:103E840085E80F0000232A4605A90120FFF77AFFE1
:103E94000AB070BD9869002098EA0120002070479C
:103EA4000020704700220C4B10B51A60FFF7D4FFB6
:103EB400041E18BF0124FFF7D1FF08B144F0020427
:103EC400FFF7ECFF08B144F00404FFF7E9FF08B181
:103ED40044F00804204610BDE4E7012010B586B084
:103EE40000F05AFF4022002104461748FFF702FF62
:103EF400142201A8FFF7FEFE144B0193A3F55833D7
:103F04005B68C3F30223023B042B1AD8104AD35C28
:103F14008B4208BF0323082205934FF08053CDE959
:103F2400033200F037FF0346591E4B4206484B410B
:103F3400224601A980F82F30FFF7CEFC002006B0FE
:103F440010BD0323E7E700BFA4E7012000100450DD
:103F540090690020B0F1805F08B502D0B0F1C04F85
:103F640004D10348FEF7F0FE400808BD0020FCE73A
:103F7400A4E7012008B5FFF785FE431C04D0032104
:103F84000248FFF765FD002008BD00BFA4E701203B
:103F94000303050206000000002004500200000094
:103FA4000000001220000000000000001C10085057
:103FB40000000000330000000100000010B5064CB2
:103FC40023780BB1002010BD044B9B6A03B19847C2
:103FD40001232370F6E700BF51F0012048080B12BB
:103FE400182208B5034902F0FFFE0028014818BF53
:103FF400002008BD48080B12FFF770BFFFF7AABFE7
:10400400EFF3108072B6704780F31088704740BF9A
:10401400714A1368012B04D04FF0010313606F4AF7
:1040240010606F4A11606F484FF080510160704713
:10403400EFF3108272B66848016889B34FF000014B
:10404400016066480168B1B1EFF309811EF0100FF9
:1040540008BF21ED108B21E9F00FEFF30B8441F839
:10406400044D4FF000041EF0100F08BF012441F866
:10407400044D006801605A490968096808C910C9F3
:1040840084F30B88B1E8F00F002B18BFB1EC108B50
:1040940081F309884EF0100E002B18BF2EF0100E7D
:1040A40082F310884EF0040E70474F484FF47F019E
:1040B400D0F8002041EA02010160704748490860D5
:1040C400EFF3148222F0040282F3148843494FF080
:1040D4000000086040494FF00100086042484FF476
:1040E4007F01D0F8002041EA020101603D484FF011
:1040F400805101603D480068006800BF80F3088873
:1041040061B662B6704700BF20BF7047EFF3088006
:104114001EF0040F01D0EFF3098020E9F00FEFF354
:104124000B8440F8044D40F804ED40F804ED1EF013
:10413400040F02D080F3098801E080F3088800B5F9
:1041440002F026FE5DF804EB4EF0040E7047EFF328
:1041540008801EF0040F01D0EFF3098020E9F00F6E
:10416400EFF30B8440F8044D40F804ED40F804EDFF
:104174001EF0040F02D080F3098801E080F3088860
:1041840000B502F02DFE5DF804EB4EF0040E70470E
:1041940010B4EFF3038410B47C4600B500B54DF8B9
:1041A40004CD0FB4089C2DE9F00FEFF30B8410B489
:1041B40000B5684602F038FE01BC10BC84F30B88DD
:1041C400BDE8F00F0FBC5DF804CB5DF804EB10BC48
:1041D40010BC10BC704700005C2902206429022036
:1041E4006029022004ED00E020ED00E008ED00E08D
:1041F400104A1378FF2B05D10F4B9B68DB4303F068
:10420400010313700D4A506B4BB10D4B1B681BB966
:104214000A23B0FBF3F070470A4B1B88F9E74FF40D
:104224007A72C0F30E03C00B5343504300EBD330F8
:10423400704700BF82E1012000B00C5000000C5018
:10424400B4200220B020022008B5002A00F05581D5
:10425400002900F05281612800F24A81DFE810F061
:1042640062002C014801690028016D002401480105
:104274007100F0001C011801480175004801790023
:104284007D004801810048014801860013018B002C
:1042940090009500A200A700AC0048014801480125
:1042A400B100B6000E010901BB00C000480148017D
:1042B400C50048014801CA004801CF00D400E90004
:1042C400F900480148014801480148014801D90062
:1042D4000401DE003F01E100E30048014801480118
:1042E400E5004801E700480148014801EB004801A6
:1042F400480148014801480148014801F200F20020
:10430400F7004801480148014801FB004801480101
:1043140000012001300135013A019A0048010201EF
:104324004401F20000230B6001234FF0A04013600E
:1043340008BD00230B600223F7E700230B6004236E
:10434400F3E700230B601023EFE700230B60202327
:10435400EBE700230B604023E7E700230B60802397
:10436400E3E700230B604FF48073DEE700230B6068
:104374004FF48063D9E700230B604FF40063D4E764
:1043840000230B604FF48053CFE700230B604FF4FE
:104394000053CAE701230B604FF400134FF0804031
:1043A4001360C5E700230B604FF48043BDE700238F
:1043B4000B604FF40043B8E700230B604FF48033E5
:1043C400B3E700230B604FF40033AEE700230B6028
:1043D4004FF48023A9E700230B604FF48013A4E774
:1043E40000230B604FF400139FE700230B604FF48E
:1043F40080039AE700230B604FF0007395E70023D6
:104404000B604FF0006390E700230B604FF0805384
:104414008BE700230B604FF0004386E701230B601A
:1044240083E7012386E7012388E701238AE7012341
:1044340090E7012396E701230B604FF4007374E7C0
:1044440001239EE701230B604FF400236DE7012352
:10445400C2E70123CFE701230B604FF4000364E7B5
:104464000123C3E70023F7E700230B604FF48073B5
:1044740094E700230B604FF480638FE700230B6005
:104484004FF400738AE700230B604FF4004385E781
:1044940000230B60402381E700230B6020237DE78A
:1044A40000230B60102379E700230B60082375E7D2
:1044B40000230B60042371E700230B6002236DE7E4
:1044C40000230B604FF4801368E700230B604FF464
:1044D400002363E700230B604FF480235EE700238F
:1044E4000B604FF4803359E700230B60802355E7BA
:1044F40040F22231024802F0C7FC002018E700BF56
:104504003266002007B5134A134902EBC002D1F802
:104514009C309278022862F30303C1F89C300DF1B9
:10452400070011D1FBF718FF10B10B238DF80730EA
:10453400094A9DF80710D2F8943061F30303C2F8D6
:10454400943003B05DF804FBFBF712FF0028EFD0B2
:104554000D23EBE77477002000A00C504FF0A0432C
:104564000D281A6A0DD842F6F173C34013F0010FF7
:104574000CBF012303238340134023FA00F0C0B28D
:1045840070470123F7E70000012803D002280ED06A
:10459400002070474FF0A043DB6A63B113F00100C1
:1045A4000AD00648C3F3830303FB000070474FF0AF
:1045B400A0431B6BF1E71846704700BF00366E013D
:1045C4000120FFF7E1BF0220FFF7DEBF00207047A4
:1045D40038B5244BA1F1B774A4F558549C423FD884
:1045E400012839D0022839D040F27B611E4802F0FC
:1045F4004BFC1E4B0020D3F8942091075EBFD3F8E8
:10460400942042F00202C3F89420D3F89420D207F5
:104614005EBFD3F8942042F00102C3F89420144AF8
:104624002B68B4FBF2F423F001032B602B6823F412
:10463400005323F03C0343EA840343F4805343F0E0
:1046440001032B6001F044FB0A2001F041FB2B68BD
:10465400002BFCDA002038BD064DCAE7064DC8E73A
:104664000120F8E7002A75153266002000B00050DA
:1046740000366E012C00005030000050014601202D
:10468400FFF7A6BF01460220FFF7A2BF4FF0A042EA
:10469400D36A002023F00103D36270474FF0A04295
:1046A400136B002023F0010313637047012808D122
:1046B4004FF0A0431B6A03F00303032B01D1FFF760
:1046C4007FBF0148704700BF006CDC02021E08BFB8
:1046D400012210B51046FFF7E9FF012A04460AD06B
:1046E400022A10D040F24B710A4802F0CDFB01239C
:1046F400B4FBF3F010BD4FF0A0435B6ADBB2012BB7
:10470400B8BF0123F4E74FF080435B6903F03F0334
:10471400F5E700BF326600204FF0A04310B50D2826
:104724001B6A18D842F6F172C24012F0010F0CBF96
:104734000122032202FA00F411404FF0A04223EABE
:10474400040381400B43136220B90120FFF7BEFF2D
:10475400024B186010BD0122ECE700BF6CD90120A8
:104764000028D8BF002008B5CCBFFF23034600298A
:1047740012DB002A43F4E06340EA01200EDA4FF032
:10478400A0414A6A22EA030303434B620120FFF774
:104794009DFF074B186008BD002A04DB43F4E04387
:1047A40040EA0230EBE7002BF0D0FF23E7E700BF3D
:1047B4006CD9012070B50C46194D0646FFF7A2FED0
:1047C4002B69FA2023F004032B6101F081FA302CC9
:1047D4000DD800210846FFF79FFF30200422002156
:1047E400B0FBF4F0FFF7BCFF0024204670BD01F0DD
:1047F400FDF90C4800EBC60043680B48EB616043CD
:10480400FFF73CFF04460028EFD1012106220846A9
:10481400FFF7A6FF03212046FFF77EFFE4E700BF72
:1048240000B000507477002040420F002DE9F3419E
:104834001F4C204F04EBC0023B6B9278054662F399
:1048440017534FEAC0083B630DF107000E46FBF710
:1048540083FD10B10B238DF807309DF8071014F970
:10486400352030250A440021FB6C084662F3850399
:10487400FB64FFF751FF302EB5FBF6F504D940F683
:104884000C210D4802F000FB042200212846FFF70A
:1048940067FFFFF7FBFE01F0B5F94444074B62687C
:1048A400DA611A6942F004021A6102B0BDE8F081CB
:1048B4007477002000A00C503266002000B0005035
:1048C40070B5314E054633780C46012B43D9023B73
:1048D400012B02D90125284670BD2C4B53F8212009
:1048E400FFF771FE9042F5D8012905D829462046E4
:1048F400FFF79CFF002535E000210846FFF70CFF79
:104904002046FFF7FFFDFA2001F0E2F9FFF7BEFEB3
:10491400302D0DD801F076F900210846FFF7FCFE92
:10492400042200213020B0FBF5F0FFF719FFE1E786
:1049340001F05CF916486843FFF7A0FE054600281D
:10494400C8D1012106220846FFF70AFF03212846A1
:10495400FFF7E2FECEE7012909D901462046FFF719
:1049640029FF05460020347001F0B2F9B3E78B4209
:1049740003D14FF0FF321146D4E790210220FFF714
:1049840019FF0028A6D1B1E7C9D901206477002016
:1049940040420F00002808B511DD002926DB01285C
:1049A40000D139B13F2343F4E06340EA0120002AF7
:1049B4000BDA0EE00146F5E700200346F3E7002991
:1049C400FADA002A0CDB0020034643F4E04340EA11
:1049D40002304FF080414A6922EA030303434B61EA
:1049E4000220FFF773FE024B186008BD3F23DEE789
:1049F4006CD9012038B5041E08BF012420460D4699
:104A0400FFF764FE012C08D0022C0ED00A4840F2B5
:104A14006C7102F039FA002006E04FF0A0435B6AA3
:104A24003DB1C3F30223D84038BD4FF080435B69E6
:104A3400F6E7C3F30233F6E7326600204FF0804313
:104A44001A6842F480221A601A685203FCD51A6864
:104A540022F480221A607047024A136823F0040388
:104A64001360704700000440134A1368590721D4A7
:104A7400116800280CBF01234FF0FF3341F00401FB
:104A840011604FF0804243F48013136011680029D1
:104A9400FCD0094A116CC80606D5116C41F002011C
:104AA4001164116CC906FCD44FF080410A6822EAF3
:104AB40003030B60704700BF0000044007B56A465B
:104AC40001A9FFF7C1FBB0F1A04F0FD1019B13B1B6
:104AD400012B11D10C480368009A13430360036847
:104AE40023EA0203036003B05DF804FBB0F1804FD6
:104AF40002D1019B002BEED040F60301034803B022
:104B04005DF804EB02F0C0B90400005032660020E6
:104B140007B56A4601A9FFF797FBB0F1A04F05D18D
:104B2400019B83B1012B06D10F4B0DE0B0F1804FF7
:104B340001D1019BB3B140F622010C4803B05DF8EA
:104B440004EB02F0A1B90A4BEFF31081012282F3C6
:104B540010881A68009802431A6081F3108803B021
:104B64005DF804FB034BEFE70C00005032660020B5
:104B7400080000500400004007B56A4601A9FFF789
:104B840063FBB0F1A04F05D1019B83B1012B06D18A
:104B9400104B0DE0B0F1804F01D1019BBBB140F649
:104BA4003F010D4803B05DF804EB02F06DB90B4B07
:104BB400EFF31081012282F310881A68009822EA28
:104BC40000021A6081F3108803B05DF804FB044B03
:104BD400EEE700BF0C0000503266002008000050D1
:104BE400040000402DE9F8432A4B1B69002B4EDAE0
:104BF4004FF0A0456B6B4FF00B096FF30F036FEA97
:104C040093336FEA83334FF400744FF48078224E69
:104C14006B63736F214F43F4C0037367736F43F087
:104C24004063736747F6E073726F03EA44133A40D4
:104C340013437367032001F04BF86B6B43F080431D
:104C44006B636B6B002BFCDAA96BAA6B6B6B90B27A
:104C540023F08043B0EB114F6B634FEA114335BF30
:104C64001B1AC01A4444A4EB080435BF98B280B29E
:104C7400A4B2A4B23F2804D9B9F101094FEA5808F3
:104C8400D0D1A02894BF00200120BDE8F8830120E2
:104C9400FBE700BF00000C5000A00C501F80FFFF7A
:104CA4000028D6BF0020FF230346002910DB090299
:104CB40001F4E061002A43F4E06340EA010009DA08
:104CC4004FF0A0414A6C22EA030303434B6470474C
:104CD400002A09DB002A08BF0122120302F4E04281
:104CE40043F4E0431043EBE7002BF0D0FF23E7E766
:104CF4004FF0A0435A6C22F480225A645A6C61F338
:104D040011425A64704708B50F20FFF735FF0D2094
:104D1400FFF732FF01200021FFF7EAFF02460C20D3
:104D2400FFF7BEFF00210C20FFF7F6FC02F040F86D
:104D340008BD4FF0A042536A60F3154353627047B5
:104D4400F0280DD8902807D8302807D8182894BF01
:104D540000210121FFF7B4BD0321FBE70221F9E79C
:104D640001207047000000000000000000882A11A4
:104D740000882A11FB06090030031000FD080A0010
:104D840031031100000B0D0013021300020D0F007C
:104D94001302130000207047014B1888704700BFAE
:104DA4005AD90120014B1888704700BF58D90120F7
:104DB4000048704700E0001238B50020FFF7CEFB32
:104DC400044628B900F012FF01212046FFF7A4FC95
:104DD40001210C20FFF7A0FCFFF7DCFF01285FD0C6
:104DE400022000F093FE0120FFF73EFE01F0B8FF21
:104DF40000F01EFF012002F013F8022002F040F838
:104E0400012002F029F801F0B7FF01F0CDFF18B13D
:104E140087213C4802F038F83B4A3C48936843F009
:104E24000103936001F0F4FF4FF08042136943F0F3
:104E340010031361EFF31085012383F31088344CBE
:104E440023781BB994212F4802F01EF82378013BE4
:104E5400DBB2237023B92F4AD36A23F00103D36250
:104E640085F31088284B9C6814F0010418D101F0D4
:104E7400E3FF64222146C82001F086FF02F008F80F
:104E84004FF41652B0FBF2F04FF47A72B2FBF0F228
:104E9400214901320B6F23F47C7343EA02130B673D
:104EA40002240425F020FFF74BFF1C48FFF7EAFB20
:104EB400002000F00DFF1A4B1C801A4B1D80FBF7DD
:104EC4009FF921462846FFF727FC012200201146BE
:104ED400FBF7C0F9FFF790F821460620FFF71CFC0A
:104EE400FFF758FF012808D10A4A136B23F0010386
:104EF4001363BDE83840FEF7B1BFBDE83840FBF7A7
:104F040025BF00BF2165002000B00C5000B0004058
:104F14009898002000000C5000A00C5000882A1122
:104F24005AD9012058D9012008B500F0AFF9BDE8DD
:104F34000840012000F088BB704701460122002090
:104F440000F0F2BA002110B50846012200F0ECFA94
:104F540001220021104600F0E7FA012200211A2064
:104F640000F0E2FA012200212A2000F0DDFA0123F8
:104F7400102252210E2001F033F801231022532174
:104F84000F2001F02DF8102201235421104601F0C6
:104F940027F8012310225521112001F021F80123C3
:104FA40010225621122001F01BF801231022572150
:104FB400132001F015F8012310225821142001F0C8
:104FC4000FF8012310225921152001F009F80123BB
:104FD40010225A21162001F003F8012310225C212B
:104FE400182000F0FDFF012310225D21192000F09C
:104FF400F7FFBDE81040012310227C21382000F087
:10500400EFBF08B54FF4FA7000F062FE00F0FBF851
:1050140001220020114600F087FA012211461046B1
:1050240000F082FA01222620114600F07DFA0122C6
:105034001A20114600F078FA0123002252210E2092
:1050440000F0CEFF0123002253210F2000F0C8FFFF
:10505400012300227821342000F0C2FF0123002222
:105064006C21282000F0BCFF012330224FF49D71F5
:10507400182000F0B5FF0123302240F23B11192023
:1050840000F0AEFF012330227C21382000F0A8FF7D
:10509400BDE8084001222A20114600F045BA08B5AF
:1050A40000F094F8BDE8084001220920114600F000
:1050B4003BBA10B501220021092000F035FA012382
:1050C40010225B21172000F08BFF012310227B218B
:1050D400372000F085FF0123102273212F2000F0D8
:1050E4007FFFBDE81040012310227721332000F018
:1050F40077BF01460122092000F016BA10B501233A
:10510400044610220921022000F06AFF0123102224
:105114000A21032000F064FF012310220B21042044
:1051240000F05EFF012310220C21052000F058FF3F
:10513400012310220D21092000F052FF0123102227
:105144000E210A2000F04CFF012310220F210B2016
:1051540000F046FF1022012311460C2000F040FF0E
:10516400012300221946082000F03AFF01230022FF
:105174000321062000F034FF022C4FF0010310D06D
:10518400042C21D0102206210D2000F029FF01213A
:10519400084601F0CDF8BDE810400121072001F0D8
:1051A400C7B810220421184600F01AFF0123102268
:1051B40005210D2000F014FF2146BDE81040012315
:1051C4000022072000F00CBF0022DCE710B5012309
:1051D40000225B21172000F003FF012300227B2122
:1051E400372000F0FDFE0123002240F239112F2068
:1051F40000F0F6FEBDE81040012300224FF49C713C
:10520400332000F0EDBE08B50022012353210F2006
:1052140000F0E6FE012300224FF4AA710E2000F0F4
:10522400DFFE0123002240F25511102000F0D8FEC9
:10523400012300224FF4A771112000F0D1FE0123B5
:10524400002240F24F11122000F0CAFE0123002276
:105254004FF4A871132000F0C3FE0123002240F292
:105264005111142000F0BCFE012300224FF4A97157
:10527400152000F0B5FE0123002240F25311162040
:1052840000F0AEFEBDE80840FFF7A0BF10B5A54B87
:105294005B68C3F30223023B042B00F23A81DFE88C
:1052A40003F0F3F14403EF000123002219460A201E
:1052B40000F096FE012300220321092000F090FE55
:1052C400012310220921062000F08AFE0123102266
:1052D4000A21082000F084FE012330220B2107203C
:1052E40000F07EFE012330220C210B2000F078FE1A
:1052F4000121084601F01CF80121022001F018F8F0
:105304000121032001F014F80121042001F010F818
:105314000121052001F00CF801210C2001F008F80E
:1053240001210D2001F004F802E00220FFF7E6FE5F
:105334000123002219211E2000F052FE0123002225
:105344001B211A2000F04CFE0123102221211D20D4
:1053540000F046FE0123102222211B2000F040FE13
:105364000123302223211C2000F03AFE01233022A5
:1053740024211F2000F034FE0123102252210E208C
:1053840000F02EFE012310227C21382000F028FE9C
:10539400012330224FF49071202000F021FE0123DC
:1053A400302240F22111212000F01AFE01230022B4
:1053B4007421302000F014FE012300227D213920C5
:1053C40000F00EFE012310227521312000F008FEAA
:1053D400012310227621322000F002FE0123002254
:1053E40040F24911262000F0FBFD012330224FF446
:1053F400A471272000F0F4FD012300224FF4A371CF
:105404002A2000F0EDFD0123002240F247112B2059
:1054140000F0E6FD012330226D21292000F0E0FD9B
:10542400012300224FF49D71182000F0D9FD0123BF
:10543400002240F23B11192000F0D2FD012300228A
:105444006C21282000F0CCFD0123102272212E2093
:1054540000F0C6FD012310227821342000F0C0FDA5
:10546400012300227E213A2000F0BAFD01231022FC
:1054740070212C2000F0B4FDBDE81040FFF7C3BE3E
:10548400042053E7012051E70123102209210220BF
:1054940000F0A6FD012310220A21032000F0A0FD44
:1054A400012310220B21042000F09AFD0123102275
:1054B4000C21052000F094FD012310220D2106206B
:1054C40000F08EFD012310220E21072000F088FD3C
:1054D400012310220F21082000F082FD1022012355
:1054E4001146092000F07CFD0123102206210A2028
:1054F40000F076FD0123002219460B2000F070FD18
:105504000321012300220C2000F06AFD012108463A
:1055140004E7002401340121204600F009FF0D2C8A
:10552400F8D105E700B000507FB50B4B0B4C054696
:10553400002A18BF1C4601230E46CDE901030023AF
:10554400204601A9039300F0AFF82046F2B2A9B2B5
:1055540000F08EF904B070BD00000A50000008404D
:1055640070B596B0002869D0012226201146FFF7B5
:10557400DBFF01221A201146FFF7D6FF01221E206D
:105584001146FFF7D1FF4FF4FA7000F0A1FB2E2073
:10559400FFF7BEFA2A4B0124059310238DF84C30F3
:1055A400284B05A80693002309940A93089301F055
:1055B40023FC00283DD14FF47A76059A0DF11305AA
:1055C40013688DF8130043F0040313604921234644
:1055D4002246CDE90146009505A801F0D1FB40BB68
:1055E4009DF81330224623F008038DF81330492127
:1055F4002346CDE90146009505A801F025FCC0B974
:10560400234605224921CDE90146009505A801F06C
:10561400B7FB98B99DF81330052223F060038DF889
:10562400133049212346CDE90146009505A801F030
:105634000BFC059A136823F00403136016B070BDC5
:1056440000D00950801A060010B50446FFF788FF01
:105654006CB90748FEF78EFC4FF09050FBF772F8D8
:10566400FDF742F9BDE81040502000F031BB10BDF9
:105674001A65002008B50A4B984214BF40236023E2
:105684008B4206D901F01F034909138000EBC110B6
:1056940008BD044840F2553101F0F6FB0020F7E75D
:1056A40000000A507865002037B50C46054618B945
:1056B400B3213B4801F0E8FB6368012B14D9112B9B
:1056C40012D0384A23F4001191420DD002F5801211
:1056D400934209D023F4801302F50012934203D0BD
:1056E400B4212F4801F0D0FBA368022B03D9B521C4
:1056F4002B4801F0C9FB284621880DF10602FFF76B
:10570400B9FF034670B101226168BDF806000129A2
:1057140002FA00F208D15A629A65DA64DA65DA6349
:105724009A645A6103B030BD112908D15A629A654E
:10573400DA64DA65DA601A639A635A64F2E739B9AB
:105744005A629A65DA64DA65DA639A649A61E9E717
:105754009A616168134CA1420AD1DA629A639A642D
:105764000122114982408D420CBF1A625A65D9E761
:105774000E4CA14202D1DA62DA6304E00C4CA1427D
:1057840003D1DA629A635A64EAE70A4CA14201D16E
:105794001A63E3E7084CA142E2D11A63ECE700BFC5
:1057A400786500200000111000000A50000021104C
:1057B40000003110000041100000511037B50D46B3
:1057C400044620B94FF494710B4801F05DFB204668
:1057D4000DF10602A9B2FFF74DFF50B10123BDF848
:1057E40006209340836143628365C364C365C363D6
:1057F400836403B030BD00BF7865002037B50D4623
:10580400044620B940F25311184801F03DFB2946E3
:1058140020460DF10602FFF72DFFE0B10123BDF88C
:10582400062041689340D140CC0716D4816AD14008
:10583400C90712D4416B01EA030433EA01010CD114
:10584400016C8C4309D10369D340DB4303F00103AA
:10585400181E18BF012003B030BD016921FA02F2FD
:10586400D2074CBF426802681340F1E77865002014
:1058740073B50E461446054620B940F289111948FD
:1058840001F002FB012C04D94FF4C571154801F055
:10589400FBFA314628460DF10602FFF7EBFEC0B1D4
:1058A4000123BDF8061042688B40CA40D50714D4C2
:1058B400826ACA40D20710D4416B01EA030233EA78
:1058C40001010AD1056C05EA0201AA4305D114B904
:1058D400416102B070BD8161FBE70CB18360F8E700
:1058E400C360F6E778650020F7B50DF106020646B9
:1058F4000F46FFF7BFFE044628B31C4BBDF8065005
:105904009E4222D0C36DEB40D8071CD5236DEB40DB
:10591400D90704D44FF40171154801F0B5FA0123F5
:10592400AB40E3653946304601F03AFA3946304631
:1059340000F01CF9002806DB012308300D4A8340DF
:1059440043F00043936203B0F0BDC36CEB40DA074D
:10595400F9D5C369EB40DB0704D440F20F210448B6
:1059640001F092FA0123AB40E364DBE700000A5044
:105974007865002000000C500C4B70B5984204462A
:1059840010D00B4B98420FD040F24321094801F04C
:105994007BFA0025A9B220460135FFF7A5FFAE42E8
:1059A400F8D270BD4E26F4E72426F2E700000A5030
:1059B400000008407865002037B50D46044620B93C
:1059C40040F26F212F4801F05FFA0DF106022946DB
:1059D4002046FFF74FFE024600284ED04368BDF82C
:1059E4000610CB40DD070CD4836ACB40DC0708D417
:1059F4000123406B8B4033EA000002D1106C8343D7
:105A040035D01369CB4013F001001ED1D369CB40CC
:105A140013F0010019D0936ACB4013F0010F536BBC
:105A240023FA01F313D0D80703D5136CCB40DB075B
:105A34001FD4536BCB40DD071DD4136C1248CB40ED
:105A440013F0010F08BF4FF0FF3003B030BDDC0787
:105A540003D5136CCB40D8070FD4536BCB40DB0773
:105A64000ED4136C0948CB4013F0010FEAE7112060
:105A7400EBE70748E9E70748E7E74FF0FF30E4E7DB
:105A84000548E2E77865002000002110000051106D
:105A940000003110000011100000411073B50DF129
:105AA40006020646FFF7E6FD044640B3154BBDF873
:105AB40006509E4212D0C36DEB40D8070BD5236D20
:105AC400EB40D90704D44FF44A710F4801F0DCF9D4
